:100000000C9462000C948A000C948A000C948A0070
:100010000C948A000C948A000C948A000C94100EA4
:100020000C948A000C948A000C948A000C948A0028
:100030000C948A000C948A000C948A000C948A0018
:100040000C943C100C948A000C940A100C94E40F4D
:100050000C948A000C948A000C948A000C948A00F8
:100060000C94CC0E0C948A000000000024002700A1
:100070002A0000000000250028002B0000000000DE
:1000800023002600290004040404040404040202DA
:100090000202020203030303030301020408102007
:1000A0004080010204081020010204081020000012
:1000B0000008000201000003040700000000000027
:1000C0000000D01011241FBECFEFD8E0DEBFCDBF9F
:1000D00011E0A0E0B1E0E4E7FCE202C005900D927F
:1000E000AA34B107D9F727E0AAE4B1E001C01D9214
:1000F000AE32B207E1F710E0C2E6D0E004C02197CB
:10010000FE010E942316C136D107C9F70E94D610FE
:100110000C9474130C940000E0912207F0912307D3
:100120000190F081E02D682F82E297E0099461321E
:1001300008F03FC0909101079111FCCF91E090939E
:100140000107909300072FEF2093FF061092FE0601
:10015000260F2093FD069093FC069091FC06880FD5
:10016000892B8093FC068091FB068130E1F410928C
:10017000FB068091FC068093BB0085EC8093BC005D
:10018000809101078130E1F38091FE06861710F41B
:100190006091FE06ABEDB6E0E2E0F7E080E08613AA
:1001A00004C0862F089585EEE9CF9D9191938F5FCE
:1001B000F6CF60E0F6CF613208F045C090910107BC
:1001C0009111FCCF92E09093010791E0909300078A
:1001D0009FEF9093FF061092FE066093FD06ABEB37
:1001E000B6E0EBEDF6E090E0691327C01092FC0654
:1001F0009091FC06880F892B8093FC068091FB066A
:100200008130F9F41092FB068091FC068093BB00CC
:1002100085EC8093BC00809101078230E1F38091EE
:10022000FF068F3F91F08091FF06803281F0809130
:10023000FF06803371F084E008952D9121939F5F34
:10024000D3CF85EEE6CF81E0089580E0089582E087
:10025000089583E008956091BA068091B9060E94DE
:10026000DB001092B8061092BA061092B7060895F5
:1002700080E480937C0080917A00806480937A008F
:1002800080917A0086FDFCCF809178009091790072
:100290000895CF92DF92EF92FF92CF93DF93EC011C
:1002A000072E000C880B990B0E9493146B017C01A4
:1002B00020E030E040E45FE30E94431520E030E0BE
:1002C00048E452E40E94E9130E945B14C617D70762
:1002D000D4F020E030E040EA5FE3C701B6010E94BD
:1002E000431520E030E048E452E40E94E91320E0A6
:1002F00030E040E85FE30E9478130E945B1421E045
:100300006C177D070CF420E0822F90E0DF91CF91F5
:10031000FF90EF90DF90CF9008958F929F92AF92D1
:10032000BF92CF92DF92EF92FF920F931F93CF93E2
:10033000DF93FC0120813181E091B306F091B40696
:1003400001E010E02E173F070CF045C0D901AA0FBD
:10035000BB1FE091B106F091B206EA0FFB1FA0802F
:10036000B1808901009510950170112720FD27C0EB
:100370002CE93FEFEA016B017C014901840E951ED7
:10038000B401C5010E94490121E030E0892BD1F47C
:100390008C0E9D1EB401C5010E94490122E030E08F
:1003A000892B81F4BE01680D791DC5010E944901A8
:1003B00023E030E0892B31F40FEF1FEF0CC024E66F
:1003C00030E0D8CFF60180819181019682179307A2
:1003D00084F491838083C801DF91CF911F910F91A5
:1003E000FF90EF90DF90CF90BF90AF909F908F9055
:1003F000089511821082F701808191810196E9CFE1
:1004000085ED8093BC008091BC0084FDFCCF1092F0
:1004100001070895613298F420910107243089F48E
:1004200060931505282FA5EFB4E0FC018E2F821BE9
:10043000861710F080E0089581918D93F7CF81E0C9
:10044000089582E008950895E091F4048091F30402
:10045000E81730F4F0E0EE5FF84F808190E0089507
:100460008FEF9FEF08959091F4048091F3042FEFA4
:100470003FEF981748F4E92FF0E0EE5FF84F208146
:1004800030E09F5F9093F404C90108958091F304D4
:100490009091F404891B990B0895CF92DF92EF920B
:1004A000FF920F931F93CF93DF937C01CB018A01BF
:1004B0002091B706222389F0EB016B01C40ED51EF3
:1004C000CC15DD0569F06991D701ED91FC910190A2
:1004D000F081E02DC7010995F3CF642F0E940A0235
:1004E000C801DF91CF911F910F91FF90EF90DF90A6
:1004F000CF900895CF93DF931F92CDB7DEB7698376
:100500002091B7062223F9F02091BA06203258F044
:1005100021E030E0FC013383228390E080E00F9003
:10052000DF91CF9108958091B806E82FF0E0E5546F
:10053000F94F998190838F5F8093B8068093BA06B4
:1005400081E090E0ECCF61E0CE0101960E940A02CA
:10055000F7CFAF92BF92CF92DF92EF92FF920F93BD
:100560001F93CF93DF936C017B018B01040F151F49
:10057000EB015E01AE18BF08C017D10759F06991B1
:10058000D601ED91FC910190F081E02DC601099515
:10059000892B79F7C501DF91CF911F910F91FF90C2
:1005A000EF90DF90CF90BF90AF90089590E080E003
:1005B0000895FC01538D448D252F30E0842F90E069
:1005C000821B930B541710F0CF960895019708954E
:1005D000FC01918D828D981761F0A28DAE0FBF2F17
:1005E000B11D5D968C91928D9F5F9F73928F90E06D
:1005F00008958FEF9FEF0895FC01918D828D9817DC
:1006000031F0828DE80FF11D858D90E008958FEF18
:100610009FEF0895FC01918D228D892F90E0805CE1
:100620009F4F821B91098F73992708958AE096E066
:100630000E940A0321E0892B09F420E0822F08950B
:1006400080E090E0892B29F00E94160381110C9420
:1006500000000895FC01A48DA80FB92FB11DA35A65
:10066000BF4F2C91848D90E001968F739927848FD2
:10067000A689B7892C93A089B1898C9183708064F5
:100680008C93938D848D981306C00288F389E02D96
:1006900080818F7D80830895EF92FF920F931F9347
:1006A000CF93DF93EC0181E0888F9B8D8C8D981325
:1006B0001AC0E889F989808185FF15C09FB7F89431
:1006C000EE89FF896083E889F9898081837080647D
:1006D00080839FBF81E090E0DF91CF911F910F91C8
:1006E000FF90EF900895F62E0B8D10E00F5F1F4FD7
:1006F0000F731127E02E8C8D8E110CC00FB607FCE6
:10070000FACFE889F989808185FFF5CFCE010E9473
:100710002A03F1CFEB8DEC0FFD2FF11DE35AFF4FB4
:10072000F0829FB7F8940B8FEA89FB898081806201
:10073000CFCFCF93DF93EC01888D8823B9F0AA89BE
:10074000BB89E889F9898C9185FD03C0808186FD8C
:100750000DC00FB607FCF7CF8C9185FFF2CF8081DB
:1007600085FFEDCFCE010E942A03E9CFDF91CF9123
:100770000895833081F028F4813099F08230A9F017
:1007800008958730A9F08830C9F08430B1F48091A1
:1007900080008F7D03C0809180008F7780938000E0
:1007A000089584B58F7784BD089584B58F7DFBCF80
:1007B0008091B0008F778093B00008958091B00051
:1007C0008F7DF9CFCF93DF93282F30E0F901E255E9
:1007D000FF4F8491F901E656FF4FD491F901EA5792
:1007E000FF4FC491CC23A1F081110E94B903EC2FDB
:1007F000F0E0EE0FFF1FE458FF4FA591B491EC918C
:10080000ED2381E090E009F480E0DF91CF9108953D
:1008100080E090E0FACF1F93CF93DF93282F30E052
:10082000F901E255FF4F8491F901E656FF4FD4914B
:10083000F901EA57FF4FC491CC23A9F0162F81117B
:100840000E94B903EC2FF0E0EE0FFF1FEE58FF4FB0
:10085000A591B4918FB7F894EC91111108C0D0957F
:10086000DE23DC938FBFDF91CF911F910895DE2BA4
:10087000F8CF1092010781E0809300071092FB06E9
:1008800061E082E10E940B0461E083E10E940B04BD
:10089000E9EBF0E080818E7F808380818D7F808393
:1008A00088E48093B80085E48093BC000895CF93DA
:1008B000DF9390E0FC01E656FF4F24918A579F4F4B
:1008C000FC0184918823D1F090E0880F991FFC01EE
:1008D000E859FF4FA591B491FC01EE58FF4FC59127
:1008E000D49161110EC09FB7F8948C91E22FE095DE
:1008F0008E238C932881E223E8839FBFDF91CF91E1
:1009000008958FB7F894EC91E22BEC938FBFF6CF5C
:10091000789484B5826084BD84B5816084BD85B5DA
:10092000826085BD85B5816085BDEEE6F0E08081A1
:1009300081608083E1E8F0E01082808182608083C2
:10094000808181608083E0E8F0E080818160808345
:10095000E1EBF0E0808184608083E0EBF0E0808177
:1009600081608083EAE7F0E0808184608083808119
:1009700082608083808181608083808180688083C1
:100980001092C10008953FB7F89480915101909161
:100990005201A0915301B091540126B5A89B05C006
:1009A0002F3F19F00196A11DB11D3FBFBA2FA92FEE
:1009B000982F8827BC01CD01620F711D811D911DEB
:1009C00042E0660F771F881F991F4A95D1F7089557
:1009D0008F929F92AF92BF92CF92DF92EF92FF924F
:1009E0006B017C010E94C3044B015C0184E0C81AC6
:1009F000D108E108F108C80CD91CEA1CFB1CC8147A
:100A0000D904EA04FB0438F40E94C304861697064E
:100A1000A806B906C8F30E94C3046C157D058E05AF
:100A20009F05C8F3FF90EF90DF90CF90BF90AF90FD
:100A30009F908F9008958F929F92AF92BF92CF9286
:100A4000DF92EF92FF926B017C010E94C3044B0185
:100A50005C01C114D104E104F104B9F00E94C304A3
:100A6000681979098A099B09683E734081059105D7
:100A700080F321E0C21AD108E108F10888EE880E5F
:100A800083E0981EA11CB11CE4CFFF90EF90DF9093
:100A9000CF90BF90AF909F908F9008952FB7F8940C
:100AA00060914D0170914E0180914F0190915001E4
:100AB0002FBF08950F931F93CF93DF930E944E058E
:100AC0006093EB047093EC048093ED049093EE0438
:100AD0008091EF049091F004039724F01092F004B9
:100AE0001092EF048091EF049091F00497FF06C0FC
:100AF00082E090E09093F0048093EF0406E111E02F
:100B0000D0E0C0E0F80180810E5F1F4F2091EF041C
:100B10003091F00461E02C173D0709F060E00E947D
:100B20000B042196C330D10569F76CE271E080E0D7
:100B300090E0DF91CF911F910F910C941B052F92A4
:100B40003F924F925F926F927F928F929F92AF925D
:100B5000BF92CF92DF92EF92FF920F931F93CF93AA
:100B6000DF93CDB7DEB728970FB6F894DEBF0FBE80
:100B7000CDBF98878F8361E08CE00E940B04F894CE
:100B800082E08093B0008093B10094E69093B3002C
:100B90001092B20080937000789480933805109280
:100BA0003C058091390560E00E945704EE24E394EF
:100BB000F12CB2E02B2E312C13E0812E912C84E00D
:100BC0000E94E203892B09F02FC72FE335E0309311
:100BD000B2062093B10680913C0590E09093B40654
:100BE0008093B3068091090690E09093B6068093B7
:100BF000B50680913805853011F7809141059091B7
:100C00004205885891098D35910508F0C1C0809141
:100C10003C05843009F090C08091430590914405D3
:100C20008097479708F088C08091450590914605C8
:100C30000997099708F080C01092B0061092AF068D
:100C40008FEF9FEFDC018093AB069093AC06A093EF
:100C5000AD06B093AE0683E090E09093A806809333
:100C6000A70603E010E061E08CE00E940B046DE257
:100C700070E080E090E00E941B0560E08CE00E9444
:100C80000B046EE170E080E090E00E941B050150D3
:100C9000110949F70091EF041091F004F801EE0FEB
:100CA000FF1FEA5EFE4FF08060E08F2D0E940B0474
:100CB00064E670E080E090E00E941B0561E08F2D0B
:100CC0000E940B046091B3067091B406E090B106E7
:100CD000F090B20680E391E0089FA001099F500DBB
:100CE000189F500D112428E9AF81B8852A9FC001B3
:100CF0002B9F900D1124480F591F21E030E0B2E3E3
:100D0000DB2E261737070CF03CC6C901880F991F48
:100D1000F701E80FF91FA081B181840F951FFC0135
:100D2000E75AFE4FDA9EC001DB9E900D112491839D
:100D300080832F5F3F4FE5CF80913C05843440F1A5
:100D40008091430590914405825491098E9700F556
:100D500090E080E040E050E0BA01FC01EB5BFA4F2C
:100D600020813181295031092930310588F4FC0175
:100D7000E95BFA4F20813181275131092231310558
:100D800028F1208131812650310927303105B8F111
:100D900080913C058A3108F467C080913F059091AD
:100DA0004005843F914080F51092B0061092AF0646
:100DB0008FEF9FEFDC018093AB069093AC06A0937E
:100DC000AD06B093AE068BE090E047CF440F551FC1
:100DD000661F771F416004968038910509F0BDCFEA
:100DE00080E290E09093B0068093AF064093AB060C
:100DF0005093AC066093AD067093AE062CCF440FB3
:100E0000551F661F771FE7CF8091410590914205DE
:100E100085974B9748F5E8E3F5E082E090E0412CB8
:100E2000512C32019C012F5F3F4F40913C054217EE
:100E3000130609F00CF4F4C043855485475051095A
:100E40004730510508F0EBC025853685235131091F
:100E50002F30310508F4D5C0258536852A50310953
:100E60002930310508F4D6C080913C058A3108F458
:100E70003FC080913F05909140058032934008F437
:100E800093CF8091410590914205C697869780F552
:100E90008091430590914405C697869748F5E5E40F
:100EA000F5E083E090E0412C512C32019C012F5F52
:100EB0003F4F40913C054217130609F00CF4D8C08F
:100EC000408151814C5051094B30510508F0CFC041
:100ED00022813381255231092B31310508F4B9C003
:100EE000228133812C5031092A30310508F4BAC0EF
:100EF00080913C05823238F1809141059091420504
:100F00000697079700F5E8E3F5E082E090E040E01F
:100F100050E0BA01DC01119620913C052A171B060E
:100F200009F00CF4D1C0238534852E5131092731C5
:100F3000310508F4B4C0238534852C5031092B3099
:100F4000310508F4BBC01C821B82FA82E9828091C1
:100F50003C058D3008F4E9C049E753E0BE016D5F00
:100F60007F4FCE0101960E948D01892B09F0DDC0D3
:100F700049E753E0BE016D5F7F4FCE0101960E94AD
:100F80008D01019709F0D1C049E753E0BE016D5FC3
:100F90007F4FCE0101960E948D018C01892B09F0B3
:100FA000C4C0412C512C320120913C0589819A8189
:100FB0002817190609F00CF4A9C049E753E0BE014F
:100FC0006D5F7F4FCE0101960E948D016C0149E754
:100FD00053E0BE016D5F7F4FCE0101960E948D01EF
:100FE000B1E0CB16D10409F088C0892B09F09DC06F
:100FF000440C551C661C771C689440F80F5F1F4F0B
:10100000D3CF440C551C661C771C689440F802969C
:10101000349608CF440C551C661C771CF8CFC901C8
:101020000197959587959093B0068093AF060C979E
:101030002CF41092B0061092AF0616CF4092AB0679
:101040005092AC066092AD067092AE0684E090E0DD
:1010500004CE440C551C661C771C689440F802961C
:10106000349624CF440C551C661C771CF8CFC9015C
:101070000197959587959093B0068093AF060C974E
:101080002CF41092B0061092AF0632CF4092AB060D
:101090005092AC066092AD067092AE0694CE440FAC
:1010A000551F661F771F416025853685349623506E
:1010B00031092530310538F402962CCF440F551FE5
:1010C000661F771FF1CFCD01019795958795909376
:1010D000B0068093AF0640972CF41092B0061092A1
:1010E000AF0631CF4093AB065093AC066093AD068C
:1010F0007093AE068CE090E0B0CDCD28B1F40197AE
:10110000A1F4440C551C661C771C78CF1093B006D4
:101110000093AF064092AB065092AC066092AD06CB
:101120007092AE0681E090E098CD1C821B82FA821C
:10113000E9828091B3069091B406181619060CF056
:101140007AC0E091B106F091B2063A82298282819A
:10115000938189974E9708F06EC09A828982848124
:1011600095810B970A9708F066C04CEB51E0BE01E1
:101170006D5F7F4FCE0101960E948D018C01892BFE
:1011800009F059C04CEB51E0BE016D5F7F4FCE01BD
:1011900001960E948D01019709F04DC0412C512C00
:1011A00032012091B3063091B40689819A81821769
:1011B00093070CF0E5C04CEB51E0BE016D5F7F4F33
:1011C000CE0101960E948D015C010330110539F1B9
:1011D0004CEB51E0BE016D5F7F4FCE0101960E9446
:1011E0008D016C010330110561F44CEB51E0BE013F
:1011F0006D5F7F4FCE0101960E948D01C816D90602
:10120000D1F4A114B10409F4AEC0AA94AB2899F4A6
:10121000CD2889F4440C551C661C771CAEC04CEBE1
:1012200051E0BE016D5F7F4FCE0101960E948D019E
:10123000A816B90669F2E091B106F091B206828172
:101240009381C697869778F5848195814B974597CA
:1012500050F5DF0116966F0126ECC20ED11C20E07E
:1012600030E040E050E060E070E080E090E00D9120
:101270001C9111970950110908301105A0F412961C
:101280000D911C911397015111090D30110508F4AE
:1012900086C012960D911C911397045011090530C8
:1012A000110508F4A1C080913C05893380F1828149
:1012B0009381895791098335910548F584819581FA
:1012C000CA97899720F59F012A5F3F4F412C512CE7
:1012D000320143E050E0D9016D917C9111976A5041
:1012E00071096930710598F412966D917C9113978C
:1012F000665171096131710508F47AC012966D91D9
:101300007C91665071096730710508F4A0C0809126
:101310003C05823209F0A0C0828193810A97099727
:1013200008F09AC0A0913C05B0E0A150B048AA0FC7
:10133000BB1FAE0FBF1F8D919C910A97099708F0B4
:101340008BC01092B0061092AF068FEF9FEFDC01BA
:101350008093AB069093AC06A093AD06B093AE0617
:1013600086E090E07ACCCA94CD2809F064CF440C92
:10137000551C661C771C689440F80F5F1F4F11CFF7
:101380001093B0060093AF064092AB065092AC06A5
:101390006092AD067092AE0682E090E05ECC01E015
:1013A0000E94ED1521601496AC15BD0509F05FCFC4
:1013B0002093AB063093AC064093AD065093AE0637
:1013C00000E20E9408162093A9063093AA0685E041
:1013D00090E09093A8068093A70680E390E0909316
:1013E000B0068093AF063DCC01E00E94ED15DBCF47
:1013F000D301C201880F991FAA1FBB1F2C013D01F9
:10140000689440F84E5F5F4F2C5F3F4F4B33510560
:1014100009F061CF9F012A583F4FD9012D913C918E
:101420002A5031092930310508F071CF2CE130E024
:101430003093B0062093AF064092AB065092AC06B4
:101440006092AD067092AE068AE090E006CC440C45
:10145000551C661C771CD6CF8281938189579109D0
:101460008335910560F580913C05813240F184819E
:101470009581CA97899718F59F012A5F3F4F412CA4
:10148000512C320143E050E0D9016D917C911197CC
:101490006A5071096930710590F412966D917C91D2
:1014A0001397665171096131710598F112966D912A
:1014B0007C91665071096730710508F457C08281CC
:1014C00093818C549109C59708F084C080913C05A4
:1014D000843009F050C0848195818097479708F047
:1014E0004AC0868197810997099708F044C01092F5
:1014F000B0061092AF068FEF9FEFDC018093AB0632
:101500009093AC06A093AD06B093AE0687E090E052
:10151000A4CBD301C201880F991FAA1FBB1F2C01A6
:101520003D01689440F84E5F5F4F2C5F3F4F433260
:10153000510509F0A9CF9F012A5B3F4FD9012D9199
:101540003C912A5031092930310508F0B8CF20E10B
:1015500030E03093B0062093AF064092AB06509235
:10156000AC066092AD067092AE06FACE440C551CE5
:10157000661C771CD8CF80913C05843458F1848157
:10158000958189549109C39728F59F012A5F3F4FA0
:10159000BF016A577F4F412C512C3201D9014D9127
:1015A0005C911197495051094930510598F41296B0
:1015B0004D915C911397465151094131510508F401
:1015C000A2C012964D915C91465051094730510589
:1015D00008F4B8C080913C058634C0F182819381C3
:1015E0000C970B9798F5848195810997099770F569
:1015F000868197818C974F9748F58085918589974B
:101600004D9720F59F01265F3F4F412C512C320111
:1016100045E050E0D9016D917C9111976C507109B2
:101620006B30710598F412966D917C9113976E5101
:1016300071096731710508F48AC012966D917C9129
:10164000695071096930710508F4B0C080913C059A
:10165000883508F4BAC082819381855891098B3509
:10166000910508F0B2C084819581825491098E97CA
:1016700008F0ABC08F01045C1F4F30E020E08DE12B
:1016800090E040913C054450550B8417950714F5A4
:10169000A80142505109DA014D915C91495051091C
:1016A0004830510508F091C0BC016F5F7F4FD801F1
:1016B0004D915C911197475051094730510508F4FD
:1016C0007AC04D915C91485151094231510508F45D
:1016D00079C0CB010197959587959093B00680933B
:1016E000AF068A970CF471C0C901330FAA0BBB0B6C
:1016F0008093AB069093AC06A093AD06B093AE0674
:1017000089E090E0AACAD301C201880F991FAA1FDD
:10171000BB1F2C013D01689440F82C5F3F4F6217BE
:10172000730709F03BCF20E230E03093B0062093FE
:10173000AF064092AB065092AC066092AD06709236
:10174000AE06E4CE440C551C661C771CE6CFD301D4
:10175000C201880F991FAA1FBB1F2C013D0168946D
:1017600040F84E5F5F4F2C5F3F4F4534510509F005
:1017700051CF9F0126573F4FD9012D913C912C50BD
:1017800031092B30310508F061CF20E230E0309391
:10179000B0062093AF064092AB065092AC06609222
:1017A000AD067092AE0688E090E057CA440C551C16
:1017B000661C771CD6CF220F331F216002960C5F68
:1017C0001F4F5FCF220F331FF9CF80913C0580322E
:1017D00079F5828193810697069750F584819581EA
:1017E0000997099728F59F012A5F3F4FBF01625C67
:1017F0007F4F412C512C3201D9014D915C911197B1
:10180000465051094630510598F412964D915C911D
:101810001397495151094331510508F475C0129687
:101820004D915C91495051094930510508F48DC0E2
:101830002091B3063091B4063E832D8326303105C6
:101840000CF499C08F010A5F1F4F83E0282E312CC2
:1018500095ECC92E9DE9D92E9CE1E92E91E8F92E4F
:101860008D819E81281639060CF074C0D8016D91C7
:101870007C91F8013497A080B18090E080E00E94D4
:1018800091142B013C01B50190E080E00E9491147D
:101890004B015C012DEC3CEC4CE45FE30E944315F2
:1018A0009B01AC01C301B2010E94E413F0E0E0E04F
:1018B00087FD14C02DEC3CEC4CE45FE3C301B201A6
:1018C0000E9443159B01AC01C501B4010E94E413C1
:1018D000E2E0F0E087FD02C0E1E0F0E0A701960160
:1018E00063E971E080E091E00E94B0156F01FF0FA5
:1018F000EE08FF08C626D726E826F926BFEF2B1AE2
:101900003B0A0E5F1F4FACCFD301C201880F991F56
:10191000AA1FBB1F2C013D01689440F82C5F3F4F6C
:101920006217730709F068CF2EE030E03093B006FD
:101930002093AF064092AB065092AC066092AD0683
:101940007092AE068FE090E088C9440C551C661C6E
:10195000771CE4CFC092AB06D092AC06E092AD0605
:10196000F092AE0680E290E09093B0068093AF06CE
:101970008FEF9FEF72C9E2E0E093380510923C05CB
:101980001EC988E92F813885829FF001839FF00D61
:10199000112420E331E0029FC001039F900D129FAC
:1019A000900D1124E80FF91FE75AFE4F71836083F1
:1019B00060E08DE00E940B0489E5E82E81E0F82EBE
:1019C00010E000E0CC24C39490E5D92EC092B70675
:1019D000D092B9061092B8061092BA06812F90E004
:1019E0000E948C00C80199270E948C00D7016D913C
:1019F0007D0182E297E00E947A020E942B0165E05D
:101A000070E080E090E00E941B050F5F1F4F0039DF
:101A1000B3E01B07D9F661E08DE00E940B0482E081
:101A20008093380510923C0528960FB6F894DEBFD7
:101A30000FBECDBFDF91CF911F910F91FF90EF901F
:101A4000DF90CF90BF90AF909F908F907F906F90DE
:101A50005F904F903F902F900895EF92FF920F93D9
:101A60001F93CF93DF93D82FC92F7B011092700063
:101A700061E080914A010E94570460E080914A0130
:101A80000E940B0481E08093B00089E08093B10054
:101A900082ED8093B30086E48093B4000D2F1C2F59
:101AA000D0E0C0E0CE15DF05D8F4F8016191719166
:101AB0008F018091B000C0FF11C08F7D8093B00076
:101AC0006115710549F090E080E065307105810590
:101AD000910510F00E94E8042196E4CF8062EECFD9
:101AE0008091B0008F7D8093B000E091EF04F09181
:101AF000F004EE0FFF1FEA5EFE4FC08160E08C2F06
:101B00000E940B0468EC70E080E090E00E941B05EE
:101B100061E08C2FDF91CF911F910F91FF90EF909B
:101B20000C940B04FC0101900020E9F73197AF0100
:101B3000481B590BE0910A06F0910B060280F381D5
:101B4000E02DBC018AE096E009948F929F92AF92BB
:101B5000BF920F931F93CF93DF93CDB7DEB7A197BB
:101B60000FB6F894DEBF0FBECDBF19A2423008F405
:101B70004AE08E010F5D1F4F842E912CB12CA12CB9
:101B8000A50194010E94C015E62FB901CA01EA30EF
:101B9000F4F4E05DD801EE938D01232B242B252B4B
:101BA00079F790E080E0109719F0CD010E94920D36
:101BB000A1960FB6F894DEBF0FBECDBFDF91CF91D7
:101BC0001F910F91BF90AF909F908F900895E95C07
:101BD000E1CFCF92DF92EF92FF92CF93DF936B0131
:101BE0007C01E0910A06F0910B060190F081E02D56
:101BF0006DE28AE096E00995EC0166277727CB0134
:101C00006C197D098E099F094AE00E94A50D8C0F71
:101C10009D1FDF91CF91FF90EF90DF90CF900895BF
:101C20001F920F920FB60F9211242F933F934F9351
:101C30005F936F937F938F939F93AF93BF93EF9334
:101C4000FF93809139050E94E20320913D05309178
:101C50003E052F5F3F4F30933E0520933D05909109
:101C60003C05953618F096E090933805909138052C
:101C7000943009F466C0B8F49230F1F0933009F46E
:101C800044C090913B05992309F46BC081117AC03F
:101C900080913A05882309F463C080913A0561E098
:101CA0000E940B045EC0953009F457C0963049F786
:101CB00091E0909309064FC08111E3CF20913D053B
:101CC00030913E052436310528F410923E051092DD
:101CD0003D05D7CF1092090610923C05E0913C05D6
:101CE00091E09E0F90933C05F0E020913D053091EE
:101CF0003E05EE0FFF1FE85CFA4F308727831092F6
:101D00003E0510923D0593E019C0813009F0B9CF2E
:101D1000E0913C0591E09E0F90933C05F0E020910E
:101D20003D0530913E05EE0FFF1FE85CFA4F30870E
:101D3000278310923E0510923D0594E0909338055C
:101D4000A0CF882359F220913D0530913E052536DC
:101D5000310508F496CF95E0F1CF811192CFB5CF40
:101D60002D9AFF91EF91BF91AF919F918F917F91AC
:101D70006F915F914F913F912F910F900FBE0F90F8
:101D80001F90189580913A05882321F080913A059B
:101D900060E086CF2D98E5CF1F920F920FB60F927D
:101DA00011242F933F934F935F936F937F938F9360
:101DB0009F93AF93BF93EF93FF938091B900887F78
:101DC000803609F44AC0F0F5883209F4A5C018F548
:101DD000803109F499C0B8F4882309F4F2C088303E
:101DE00009F492C0FF91EF91BF91AF919F918F91B4
:101DF0007F916F915F914F913F912F910F900FBE07
:101E00000F901F901895883109F486C0803251F7E1
:101E10008093FF0614C0803409F49BC040F48033E3
:101E2000B9F38833F9F68093FF0685ECAEC08035B0
:101E300009F483C0883509F494C0883499F60E9467
:101E40000002D0CF883909F48AC038F5883729F0E4
:101E500050F4883611F0803729F683E0809301072B
:101E60001092370555C0883809F479C0803919F0C7
:101E7000803809F0B7CF80913705803208F06FC005
:101E8000E091370581E08E0F809337058091BB008C
:101E9000F0E0E95EFA4F80833BC0803B39F0D0F43C
:101EA000803A09F477C0883A09F09CCF84E08093A7
:101EB00001071092160510921505F0E0E0E0099573
:101EC0008091150581110FC081E080931505109256
:101ED000F50409C0803C09F4A8CF883C09F4A5CFDB
:101EE000883B09F07FCFE091160581E08E0F80934B
:101EF0001605F0E0EB50FB4F80818093BB00909182
:101F000016058091150529C08091FC068093BB00C1
:101F100085EC8093BC0066CF9091FE068091FD0613
:101F2000981758F5E091FE0681E08E0F8093FE062B
:101F3000F0E0E552F94F8081E9CFE091FE0681E0C3
:101F40008E0F8093FE068091BB00F0E0E552F94FC2
:101F500080839091FE068091FD069817C8F285E86F
:101F6000D8CFE091FE0681E08E0F8093FE0680912F
:101F7000BB00F0E0E552F94F8083809100078111AA
:101F80005ECF81E08093FB0684EA8093BC001092D0
:101F9000010728CF80913705803230F4E091370572
:101FA000F0E0E95EFA4F10820E940002609137056E
:101FB00070E087E195E0F0E0E0E0099510923705E8
:101FC00034CF1092FF063BCF1F920F920FB60F92A5
:101FD00011242F933F934F935F936F937F938F932E
:101FE0009F93AF93BF93EF93FF938AE096E00E9495
:101FF0002A03FF91EF91BF91AF919F918F917F91B4
:102000006F915F914F913F912F910F900FBE0F9065
:102010001F9018951F920F920FB60F9211242F93B5
:102020008F939F93EF93FF93E0911A06F0911B0615
:102030008081E0912006F091210682FD1BC09081F5
:10204000809123068F5F8F7320912406821741F0C1
:10205000E0912306F0E0E65FF94F958F8093230629
:10206000FF91EF919F918F912F910F900FBE0F9045
:102070001F9018958081F4CF1F920F920FB60F9288
:1020800011242F933F938F939F93AF93BF9380918E
:102090004D0190914E01A0914F01B09150013091AE
:1020A0004C0123E0230F2D3758F50196A11DB11DDA
:1020B00020934C0180934D0190934E01A0934F01CA
:1020C000B09350018091510190915201A091530120
:1020D000B09154010196A11DB11D809351019093BF
:1020E0005201A0935301B0935401BF91AF919F91BE
:1020F0008F913F912F910F900FBE0F901F901895C9
:1021000026E8230F0296A11DB11DD2CFE2E2F7E02F
:102110001382128288EE93E0A0E0B0E0848395837E
:10212000A683B78380E291E0918380830895EAE0FB
:10213000F6E01382128288EE93E0A0E0B0E08483A0
:102140009583A683B78388E091E09183808385ECB3
:1021500090E09587848784EC90E09787868780EC71
:1021600090E0918B808B81EC90E0938B828B82EC62
:1021700090E0958B848B86EC90E0978B868B118E0C
:10218000128E138E148E089583E090E090934B018D
:1021900080934A01E8E3F5E088E0818313820895A3
:1021A0000E9486100E9497100C94C4100E9488040C
:1021B000E0911A06F0911B0682E08083E0911A06F6
:1021C000F0911B061082E0911606F091170610821E
:1021D000E0911806F091190680E1808310922206A2
:1021E000E0911E06F0911F0686E08083E0911C06B8
:1021F000F0911D06808180618083E0911C06F09142
:102200001D06808188608083E0911C06F0911D0688
:10221000808180688083E0911C06F0911D0680819A
:102220008F7D80831092F4041092F3040E9439048D
:1022300060E087E00E94570460E086E00E94570457
:1022400060E085E00E94570460E084E00E9457044B
:1022500061E08DE00E94570461E08CE00E94570429
:1022600061E089E00E94570461E08AE00E9457041F
:1022700061E08BE00E945704D0E0C0E011E000E58F
:102280001093B7060093B9061092B8061092BA06DA
:102290008D2F90E00E948C00CE0199270E948C0027
:1022A0000E942B0161E080E50E9497001092F404E7
:1022B0008093F304882341F082E297E00E94330286
:1022C000FE01E75AFE4F80832196C03923E0D207F2
:1022D000B9F6C3E0D0E061E08DE00E940B046CE24F
:1022E00071E080E090E00E941B0560E08DE00E94BC
:1022F0000B046CE271E080E090E00E941B052197E6
:1023000051F761E08DE00E940B040E945A05C0E382
:10231000D1E090E0692E90E0792ECC24C394D12CAA
:102320000E943801092E000CAA0BBB0B8093000100
:1023300090930101A0930201B093030184E00E94F5
:10234000E203892B09F4C7C00E944E054B015C01D2
:102350008EE291E00E94920D4AE0C501B4010E9414
:10236000A50D8CE391E00E94920D0E944E054AE07B
:102370000E94A50D8FE391E00E94920D84E00E94DF
:10238000E203892BD1F00E944E05681979098A0968
:102390009B09683B7B408105910540F0D092580134
:1023A000C092570161E08CE00E940B0469E170E08B
:1023B00080E090E00E941B05E1CF80915701909151
:1023C0005801892B09F487C00E944E054B015C011E
:1023D0008091570190915801892B09F450C00E94B7
:1023E0004E05681979098A099B09683C71058105C0
:1023F000910520F460E08CE00E940B040E944E05E1
:10240000681979098A099B09693C7105810591055B
:1024100020F061E08CE00E940B040E944E056819D8
:1024200079098A099B09613971408105910520F07C
:102430000E944E054B015C0184E00E94E2037C0196
:10244000909356018093550187E00E94E2038C012E
:102450009093EA048093E90486E00E94E20390935B
:10246000F2048093F104EF2829F4892B19F4012B4D
:1024700009F4AECF1092580110925701A9CF809164
:10248000E9049091EA04892B41F01092EA04109239
:10249000E90490E080E00E949F058091F104909112
:1024A000F204892B41F01092F2041092F10481E0C1
:1024B00090E00E949F0560E08CE00E940B04E09198
:1024C000EF04F091F004EE0FFF1FEA5EFE4F61E0B3
:1024D00080810E940B0485E00E94E203892B81F039
:1024E0008091EF049091F00401969093F004809312
:1024F000EF040E945A0585E00E94E203892BD9F778
:1025000087E00E94E203892BE1F10E944E054B0116
:102510005C010E944E05681979098A099B0900919E
:102520000001109101012091020130910301601717
:1025300071078207930768F486E00E94E203892B03
:1025400041F486E00E94E2039093F2048093F10448
:10255000E0CF69E170E080E090E00E941B052091EF
:10256000EF043091F0048091F1049091F20401970E
:1025700091F5215031093093F0042093EF040E942B
:102580005A0586E00E94E203892B09F44EC00E949E
:102590004E054B015C010E944E05681979098A09B4
:1025A0009B090091000110910101209102013091DD
:1025B00003016017710782079307F0F487E00E9418
:1025C000E203892BC9F487E00E94E2039093EA04B6
:1025D0008093E904E0CF2C9FC0012D9F900D3C9F7C
:1025E000900D1124FC01E75AFE4F60817181855ADC
:1025F0009E4F0E942D0DC5CF69E170E080E090E014
:102600000E941B052091EF043091F0048091E904B1
:102610009091EA04019709F04EC02F5F3F4F30932D
:10262000F0042093EF040E945A0582E491E00E9496
:10263000920D86E00E94E203BC01990F880B990B72
:1026400097FF4AC00E94E90D6091F1047091F20475
:10265000072E000C880B990B97FF42C00E94E90DD2
:102660008091EF049091F004892BC9F00E944E05EF
:102670000091EB041091EC042091ED043091EE04F4
:10268000601B710B820B930B61327E4481059105B7
:1026900030F01092F0041092EF040E945A05611479
:1026A000710409F43DCE0E941603882309F438CE44
:1026B0000E94000035CE2C9FC0012D9F900D3C9FA5
:1026C000900D1124FC01EF50FE4F608171818D50FF
:1026D0009E4F0E942D0DA9CF4AE00E94A50DB4CFB8
:1026E0004AE00E94A50DBCCFF8940C9438165058BF
:1026F000BB27AA270E948F130C9409150E94FB1474
:1027000038F00E94021520F039F49F3F19F426F4A6
:102710000C94F8140EF4E095E7FB0C94F214E92FF6
:102720000E941A1558F3BA176207730784079507B2
:1027300020F079F4A6F50C943C150EF4E0950B2EE0
:10274000BA2FA02D0B01B90190010C01CA01A00103
:102750001124FF27591B99F0593F50F4503E68F15E
:102760001A16F040A22F232F342F4427585FF3CF9F
:10277000469537952795A795F0405395C9F77EF470
:102780001F16BA0B620B730B840BBAF09150A1F0B9
:10279000FF0FBB1F661F771F881FC2F70EC0BA0F3F
:1027A000621F731F841F48F4879577956795B795C7
:1027B000F7959E3F08F0B0CF9395880F08F09927C2
:1027C000EE0F9795879508950E94CE1408F481E046
:1027D00008950E94FD130C9409150E94021558F0EB
:1027E0000E94FB1440F029F45F3F29F00C94F2148E
:1027F00051110C943D150C94F8140E941A1568F3AD
:102800009923B1F3552391F3951B550BBB27AA27A9
:1028100062177307840738F09F5F5F4F220F331FE3
:10282000441FAA1FA9F335D00E2E3AF0E0E832D0AB
:1028300091505040E695001CCAF72BD0FE2F29D0AE
:10284000660F771F881FBB1F261737074807AB0780
:10285000B0E809F0BB0B802DBF01FF2793585F4FF5
:102860003AF09E3F510578F00C94F2140C943D150B
:102870005F3FE4F3983ED4F3869577956795B795D7
:10288000F7959F5FC9F7880F911D9695879597F9E2
:102890000895E1E0660F771F881FBB1F621773075B
:1028A0008407BA0720F0621B730B840BBA0BEE1F70
:1028B00088F7E09508950E9462146894B1110C9411
:1028C0003D1508950E94221588F09F5798F0B92F62
:1028D0009927B751B0F0E1F0660F771F881F991F55
:1028E0001AF0BA95C9F714C0B13091F00E943C15A6
:1028F000B1E008950C943C15672F782F8827B85FB6
:1029000039F0B93FCCF3869577956795B395D9F7AC
:102910003EF490958095709561957F4F8F4F9F4FB6
:102920000895E89409C097FB3EF4909580957095C2
:1029300061957F4F8F4F9F4F9923A9F0F92F96E90B
:10294000BB279395F695879577956795B795F11180
:10295000F8CFFAF4BB0F11F460FF1BC06F5F7F4F1D
:102960008F4F9F4F16C0882311F096E911C077232F
:1029700021F09EE8872F762F05C0662371F096E838
:10298000862F70E060E02AF09A95660F771F881F07
:10299000DAF7880F9695879597F90895990F0008AB
:1029A000550FAA0BE0E8FEEF16161706E807F90721
:1029B000C0F012161306E407F50798F0621B730BBC
:1029C000840B950B39F40A2661F0232B242B252B3D
:1029D00021F408950A2609F4A140A6958FEF811DE0
:1029E000811D089597F99F6780E870E060E0089581
:1029F0009FEF80EC089500240A9416161706180617
:102A00000906089500240A941216130614060506F2
:102A10000895092E0394000C11F4882352F0BB0F83
:102A200040F4BF2B11F460FF04C06F5F7F4F8F4FE6
:102A30009F4F089557FD9058440F551F59F05F3F21
:102A400071F04795880F97FB991F61F09F3F79F0D0
:102A500087950895121613061406551FF2CF469552
:102A6000F1DF08C0161617061806991FF1CF8695D4
:102A70007105610508940895E894BB2766277727B8
:102A8000CB0197F908950E9456150C9409150E94E0
:102A9000FB1438F00E94021520F0952311F00C94DD
:102AA000F2140C94F81411240C943D150E941A157C
:102AB00070F3959FC1F3950F50E0551F629FF00191
:102AC000729FBB27F00DB11D639FAA27F00DB11DAA
:102AD000AA1F649F6627B00DA11D661F829F222733
:102AE000B00DA11D621F739FB00DA11D621F839FBA
:102AF000A00D611D221F749F3327A00D611D231F90
:102B0000849F600D211D822F762F6A2F11249F57DD
:102B100050409AF0F1F088234AF0EE0FFF1FBB1FE0
:102B2000661F771F881F91505040A9F79E3F51059F
:102B300080F00C94F2140C943D155F3FE4F3983E42
:102B4000D4F3869577956795B795F795E7959F5F49
:102B5000C1F7FE2B880F911D9695879597F90895DB
:102B6000DB018F939F930E94E215BF91AF91A29FCB
:102B7000800D911DA39F900DB29F900D112408957B
:102B8000A1E21A2EAA1BBB1BFD010DC0AA1FBB1F71
:102B9000EE1FFF1FA217B307E407F50720F0A21BE3
:102BA000B30BE40BF50B661F771F881F991F1A9450
:102BB00069F760957095809590959B01AC01BD017A
:102BC000CF0108950E942916A59F900DB49F900DE6
:102BD000A49F800D911D11240895002E083090F0BF
:102BE000982F872F762F652F542F432F322F222790
:102BF0000850F4CF220F331F441F551F661F771F45
:102C0000881F991F0A95B2F7002D089597FD10941B
:102C1000002E083098F00850232F342F452F562FC0
:102C2000672F782F892F912DF4CF1594979587953D
:102C30007795679557954795379527950A95AAF7FC
:102C40001124002D0895EE0FFF1F0590F491E02D43
:102C50000994A29FB001B39FC001A39F700D811D75
:102C60001124911DB29F700D811D1124911D089595
:042C7000F894FFCF06
:102C740096000000000000004C03A902D902990349
:102C84000A03E802FC0209000A000B00000000002D
:102C94007A024D02D6022302460233022402204C59
:102CA4006561726E2054696D65723A002020000DD2
:0A2CB4000A00446F776E3A2000001A
:00000001FF
