:100000000C9462000C948A000C948A000C948A0070
:100010000C948A000C948A000C948A000C94A20D13
:100020000C948A000C948A000C948A000C948A0028
:100030000C948A000C948A000C948A000C948A0018
:100040000C941D0B0C948A000C94B1090C948B0930
:100050000C948A000C948A000C948A000C948A00F8
:100060000C945C0E0C948A00000000002400270011
:100070002A0000000000250028002B0000000000DE
:1000800023002600290004040404040404040202DA
:100090000202020203030303030301020408102007
:1000A0004080010204081020010204081020000012
:1000B0000008000201000003040700000000000027
:1000C0000000741311241FBECFEFD8E0DEBFCDBFF8
:1000D00011E0A0E0B1E0ECEFFCE202C005900D926F
:1000E000AA34B107D9F727E0AAE4B1E001C01D9214
:1000F000A133B207E1F710E0C2E6D0E004C02197D7
:10010000FE010E946716C136D107C9F70E9431105F
:100110000C94B2130C9400002F923F924F925F9276
:100120006F927F928F929F92AF92BF92CF92DF9207
:10013000EF92FF920F931F93CF93DF93CDB7DEB76C
:100140002A970FB6F894DEBF0FBECDBF8C0161E0D9
:100150008CE00E940C0AF89492E09093B000909387
:10016000B10084E68093B3001092B20090937000C7
:1001700078949093F7051092FB058091F80560E064
:100180000E943C0A88E9809F9001819F300D1124D4
:1001900038872F8322242394312C3A872987882477
:1001A0008394912C83E0A82EB12C2114310409F4FE
:1001B00058C784E00E94E309892B09F052C7EEEF8B
:1001C000F5E0F0931E05E0931D058091FB0590E09E
:1001D0009093200580931F058091C80690E090932E
:1001E0002205809321058091F7058530F1F68091F5
:1001F000000690910106885891098D35910588F483
:100200008091FB05843041F48091020690910306B1
:100210008097479708F4F9C18091FB05843408F072
:10022000DBC18091FB058A3108F452C08091FE0544
:100230009091FF05843F914080F410921C0510922C
:100240001B058FEF9FEFDC01809317059093180536
:10025000A0931905B0931A0559C08091000690919A
:10026000010685974B97A0F5E4E0F6E082E090E088
:10027000C12CD12C7601AC014F5F5F4F2091FB0563
:1002800030E0421753075CF4DF0112972D913C9147
:10029000275031092730310508F400C2CA010197FF
:1002A0009595879590931C0580931B050C972CF4CE
:1002B00010921C0510921B050BC0C0921705D0921E
:1002C0001805E0921905F0921A0584E090E008C341
:1002D0008091FB058A3108F44CC08091FE05909115
:1002E000FF058032934008F4A8CF809100069091DA
:1002F0000106C697869708F4EEC13BC0C092170569
:10030000D0921805E0921905F0921A058BE090E062
:10031000E7C220813181255231092B31310508F0A6
:10032000EAC1CC0CDD1CEE1CFF1C6894C0F80296E0
:100330003496AC014F5F5F4F2091FB0530E04217D0
:10034000530754F4DF0112972D913C912C50310941
:100350002B303105F0F2CA0101979595879590935E
:100360001C0580931B050C974CF610921C051092EF
:100370001B058091FB05823208F44DC08091000678
:10038000909101060697079708F045C0E4E0F6E073
:1003900082E090E0C12CD12C76019C012F5F3F4F71
:1003A0004091FB0550E024173507E4F4DF01129774
:1003B0004D915C9111974E5151094731510508F00B
:1003C000A7C1CC0CDD1CEE1CFF1C6894C0F840815A
:1003D00051813496435051094530510510F402962D
:1003E000DCCFC90101979595879590931C05809363
:1003F0001B0540972CF410921C0510921B050BC096
:10040000C0921705D0921805E0921905F0921A05CE
:100410008CE090E065C21C821B829A828982809166
:10042000FB058D3008F46BC049E753E0BE016D5FFA
:100430007F4FCE0101960E94A50C892B09F05FC069
:1004400049E753E0BE016D5F7F4FCE0101960E94E8
:10045000A50C019709F053C049E753E0BE016D5F59
:100460007F4FCE0101960E94A50C892B09F047C051
:10047000412C512C320100E010E08091FB0590E00E
:1004800029813A81281739075CF549E753E0BE0115
:100490006D5F7F4FCE0101960E94A50C7C0149E75C
:1004A00053E0BE016D5F7F4FCE0101960E94A50C07
:1004B000B1E0EB16F10449F4892B09F5440C551C05
:1004C000661C771C689440F808C0EF28C1F40197B7
:1004D000B1F4440C551C661C771C0F5F1F4FCDCF29
:1004E00010931C0500931B054092170550921805A8
:1004F0006092190570921A0581E090E0F1C11C82AA
:100500001B829A82898280911F059091200518167E
:1005100019060CF056C0E0911D05F0911E0522E071
:1005200030E03A8329838281938189974E9708F03E
:1005300048C0BA82A982848195810B970A9708F0F6
:1005400040C04CEB51E0BE016D5F7F4FCE01019684
:100550000E94A50C892BA9F54CEB51E0BE016D5F03
:100560007F4FCE0101960E94A50C019751F5412CB9
:10057000512C320100E010E029813A8180911F0561
:1005800090912005281739070CF005C14CEB51E07C
:10059000BE016D5F7F4FCE0101960E94A50C7C01CC
:1005A0000330110509F0C1C04CEB51E0BE016D5F95
:1005B0007F4FCE0101960E94A50CE816F90609F4BA
:1005C000B4C0E0911D05F0911E0582819381C6970C
:1005D000869708F4EFC043C280910206909103060B
:1005E000825491098E9708F01CCE80E090E040E0A4
:1005F00050E0BA01FC01EC5FF94F208131812950B4
:10060000310929303105C8F00CCE80910406909153
:1006100005060997099708F0FFCD10921C05109266
:100620001B058FEF9FEFDC01809317059093180552
:10063000A0931905B0931A0521C0FC01EA5FF94F98
:10064000208131812751310922313105D0F4440F05
:10065000551F661F771F416004968038910551F63B
:1006600080E290E090931C0580931B054093170552
:10067000509318056093190570931A0583E090E074
:100680002FC120813181265031092730310508F0F2
:10069000C8CD440F551F661F771FDECF20813181E3
:1006A000235131092F30310548F4CC0CDD1CEE1CF0
:1006B000FF1C6894C0F802963496DDCD208131810C
:1006C0002A5031092930310508F002CECC0CDD1C4E
:1006D000EE1CFF1CF0CF8091020690910306C69796
:1006E000869708F046CEE6E0F6E083E090E0C12C85
:1006F000D12C76011ECE208131812C5031092A3037
:10070000310508F036CECC0CDD1CEE1CFF1C0FCEE4
:100710004D915C914C5051094B30510508F07BCE06
:10072000CC0CDD1CEE1CFF1C52CE4CEB51E0BE018C
:100730006D5F7F4FCE0101960E94A50C6C010330C6
:10074000110569F44CEB51E0BE016D5F7F4FCE01A6
:1007500001960E94A50CC816D90609F032CFE11403
:10076000F10459F4CA94CD2809F02BCF440C551C40
:10077000661C771C689440F80BC0EA94EF2809F0D7
:1007800020CFCD2809F01DCF440C551C661C771CCA
:100790000F5F1F4FF1CE10931C0500931B05409275
:1007A0001705509218056092190570921A0582E09B
:1007B00090E096C0848195814B97459708F04FC192
:1007C000DF0116967F0136ECE30EF11C20E030E0ED
:1007D00040E050E060E070E080E090E00D911C911E
:1007E0001197095011090830110508F038C1129607
:1007F0000D911C911397015111090D30110520F530
:1008000001E00E94301621601496AE15BF0531F745
:1008100020931705309318054093190550931A0536
:1008200000E20E944B16209315053093160585E0D3
:1008300090E0909314058093130580E390E09093EB
:100840001C0580931B0550C012960D911C911397A7
:10085000045011090530110508F001C101E00E94A2
:100860003016D2CFA80142505109DA014D915C9166
:10087000495051094830510508F09FC1BC016F5FD4
:100880007F4FD8014D915C91475051094730510538
:1008900008F093C3220F331F216002960C5F1F4F95
:1008A0004091FB0550E04450510984179507D4F25C
:1008B00001979595879590931C0580931B058A97C2
:1008C0000CF47BC1C901330FAA0BBB0B8093170536
:1008D00090931805A0931905B0931A0589E090E04C
:1008E000909314058093130503E010E061E08CE021
:1008F0000E940C0A6DE270E080E090E00E949D0A88
:1009000060E08CE00E940C0A6EE170E080E090E014
:100910000E949D0A0150110949F7E091DA04F09113
:10092000DB04EE0FFF1FEC5FFE4F60E080810E9452
:100930000C0A64E670E080E090E00E949D0AE0917D
:10094000DA04F091DB04EE0FFF1FEC5FFE4F61E075
:1009500080810E940C0A40911F0550912005A091B2
:100960001D05B0911E056091DA047091DB0480E3EF
:1009700091E0689F9001699F300D789F300D1124A0
:100980008F819885280F391F81E090E0E2E3DE2E09
:100990001296841795079CF4ED90FC901197FC013A
:1009A000EE0FFF1FE20FF31FE65BFE4FDE9C8001A0
:1009B000DF9C100D1124118300830196E9CF80E3A1
:1009C00091E0689FF001699FF00D789FF00D112470
:1009D000A985BA85EA0FFB1FE65BFE4F5183408372
:1009E00060E08DE00E940C0AE12CF12C0AE411E099
:1009F000CC24C39490E5D92EC0924A05D0924C05E0
:100A000010924B0510924D058F2D90E00E94470CDF
:100A1000C70199270E94470CF80161918F018EE46C
:100A200095E00E941E0C0E944C0C65E070E080E096
:100A300090E00E949D0AFFEFEF1AFF0A20E9E216FC
:100A400023E0F206C9F661E08DE00E940C0A82E024
:100A50008093F7051092FB05212C312CA0CB8091BF
:100A6000FB05893370F18281938189579109833520
:100A7000910508F442C125C0D90112966D917C916F
:100A80001397665171096131710508F062C1D70190
:100A9000C601880F991FAA1FBB1F6C017D016894B6
:100AA000C0F84E5F5F4F2C5F3F4F4B33510509F449
:100AB00033C1D9016D917C916A507109693071051A
:100AC000D8F28091FB05823231F4828193810A97BA
:100AD000099708F44EC18281938189579109833522
:100AE0009105D0F48091FB058132B0F0848195812D
:100AF000CA97899788F49F012A5F3F4FC12CD12C58
:100B0000760143E050E0D9016D917C916A50710902
:100B10006930710508F44CC1828193818C5491092C
:100B2000C59778F48091FB05843031F484819581F8
:100B30008097479708F49CC18091FB05843408F0A6
:100B40007EC18091FB05863460F1828193810C9790
:100B50000B9708F4DBC125C0D90112966D917C91E9
:100B600013976E5171096731710508F007C2D701FB
:100B7000C601880F991FAA1FBB1F6C017D016894D5
:100B8000C0F84E5F5F4F2C5F3F4F4534510509F46D
:100B9000D8C1D9016D917C916C5071096B30710590
:100BA000D8F28091FB05883540F082819381855889
:100BB00091098B35910508F4F1C18091FB058032D4
:100BC000E1F48281938106970697B8F48481958138
:100BD0000997099790F49F012A5F3F4FBF01625C1C
:100BE0007F4FC12CD12C7601D9014D915C9146509B
:100BF00051094630510508F4EDC120911F0530918F
:100C000020053E832D83263031050CF41EC28F0152
:100C10000A5F1F4FB3E02B2E312C85ECC82E8DE9D7
:100C2000D82E8CE1E82E81E8F82EED81FE812E167B
:100C30003F060CF051C0D8016D917C91F8013497BA
:100C4000A080B18080E090E00E94D4142B013C0190
:100C5000B50180E090E00E94D4144B015C012DECC2
:100C60003CEC4CE45FE30E9486159B01AC01C301A0
:100C7000B2010E94271487FD17C02DEC3CEC4CE418
:100C80005FE3C301B2010E9486159B01AC01C5015F
:100C9000B4010E942714E82F880FFF0BEE27FF0FE7
:100CA000EE1FFF27319602C0E0E0F0E0A7019601B9
:100CB00063E971E080E091E00E94F3156F01FF0F9E
:100CC000EE08FF08C626D726E826F926BFEF2B1A1E
:100CD0003B0A0E5F1F4FA9CFC0921705D09218058F
:100CE000E0921905F0921A0580E290E090931C05BD
:100CF00080931B058FEF9FEFF3CD84819581CA9779
:100D0000899708F0DECE9F012A5F3F4FC12CD12C7E
:100D1000760143E050E0CDCE9F012A583F4FD901E4
:100D20002D913C912A5031092930310508F0C9CE66
:100D30002CE130E030931C0520931B05C092170571
:100D4000D0921805E0921905F0921A058AE090E019
:100D5000C7CDD90112966D917C9113976650710998
:100D60006730710508F0ADCECC0CDD1CEE1CFF1C0D
:100D700098CE2091FB05CF01820F911D820F911D0E
:100D8000DC0112978D919C910A97099708F0A3CEE8
:100D900010921C0510921B058FEF9FEFDC018093D2
:100DA000170590931805A0931905B0931A0553C120
:100DB000D90112966D917C91139766517109613139
:100DC000710568F5D701C601880F991FAA1FBB1FBF
:100DD0006C017D016894C0F84E5F5F4F2C5F3F4F00
:100DE0004332510509F08FCE9F012A5B3F4FD90155
:100DF0002D913C912A5031092930310508F08CCED3
:100E000020E130E030931C0520931B05C0921705AC
:100E1000D0921805E0921905F0921A051CC1D9016B
:100E200012966D917C911397665071096730710528
:100E300008F072CECC0CDD1CEE1CFF1CCDCF8481E3
:100E4000958189549109C39708F07BCE9F012A5F51
:100E50003F4FBF016A577F4FC12CD12C7601D9017A
:100E60004D915C914950510949305105B8F069CE16
:100E7000868197810997099708F05ECE10921C052C
:100E800010921B058FEF9FEFDC0180931705909365
:100E90001805A0931905B0931A05E0C0D901129660
:100EA0004D915C9113974651510941315105F0F430
:100EB000D701C601880F991FAA1FBB1F6C017D01B6
:100EC0006894C0F82C5F3F4F2617370741F620E2A1
:100ED00030E030931C0520931B05C0921705D0927B
:100EE0001805E0921905F0921A05B8C0D9011296BA
:100EF0004D915C911397465051094730510508F0C8
:100F000020CECC0CDD1CEE1CFF1CDCCF8481958137
:100F10000997099708F045CE868197818C974F975E
:100F200008F03FCE8085918589974D9708F039CE9E
:100F30009F01265F3F4FC12CD12C760145E050E048
:100F400028CE9F0126573F4FD9012D913C912C501F
:100F500031092B30310508F024CE20E230E0309307
:100F60001C0520931B05C0921705D0921805E0922E
:100F70001905F0921A0588E090E0B2CCD9011296DA
:100F80006D917C911397695071096930710508F072
:100F900008CECC0CDD1CEE1CFF1CF3CD84819581AA
:100FA000825491098E9708F008CE8F01045C1F4F80
:100FB0008DE190E020E030E073CCD8014D915C9160
:100FC000485151094231510510F0CB0171CC220F2B
:100FD000331F63CCD90112964D915C9113974951FF
:100FE00051094331510508F5D701C601880F991FF2
:100FF000AA1FBB1F6C017D016894C0F82C5F3F4F96
:101000002617370709F0F0CD2EE030E030931C05AD
:1010100020931B05C0921705D0921805E092190580
:10102000F0921A058FE090E05BCCD90112964D91B9
:101030005C911397495051094930510508F0DDCDB5
:10104000CC0CDD1CEE1CFF1CD9CFB2E0B093F70531
:101050001092FB05AAC886E090E042CC87E090E0C1
:101060003FCC2A960FB6F894DEBF0FBECDBFDF91FE
:10107000CF911F910F91FF90EF90DF90CF90BF9095
:10108000AF909F908F907F906F905F904F903F9028
:101090002F900895CF92DF92EF92FF920F931F93BC
:1010A000CF93DF936C017A018B01C0E0D0E0CE15C5
:1010B000DF0589F0D8016D918D01D601ED91FC918C
:1010C0000190F081E02DC6010995892B11F47E0174
:1010D00002C02196ECCFC701DF91CF911F910F91F4
:1010E000FF90EF90DF90CF900895089580E090E01A
:1010F0000895FC01538D448D252F30E0842F90E01E
:10110000821B930B541710F0CF9608950197089502
:10111000FC01918D828D981761F0828DDF01A80FFF
:10112000B11D5D968C91928D9F5F9F73928F90E021
:1011300008958FEF9FEF0895FC01918D828D981790
:1011400031F0828DE80FF11D858D90E008958FEFCD
:101150009FEF0895FC01918D228D892F90E0805C96
:101160009F4F821B91098F73992708958AE595E017
:101170000E94AA0821E0892B09F420E0822F08951B
:10118000FC01848DDF01A80FB11DA35ABF4F2C9124
:10119000848D90E001968F739927848FA689B789F3
:1011A0002C93A089B1898C9180648C93938D848DCC
:1011B000981306C00288F389E02D80818F7D80839B
:1011C0000895EF92FF920F931F93CF93DF93EC015B
:1011D00081E0888F9B8D8C8D981305C0E889F989F3
:1011E000808185FD24C0F62E0B8D10E00F5F1F4F10
:1011F0000F731127E02E8C8DE8120CC00FB607FC80
:10120000FACFE889F989808185FFF5CFCE010E9468
:10121000C008F1CF8B8DFE01E80FF11DE35AFF4F9F
:10122000F0820B8FEA89FB898081806207C0EE899A
:10123000FF896083E889F98980818064808381E007
:1012400090E0DF91CF911F910F91FF90EF90089563
:10125000CF93DF93EC01888D8823C9F0EA89FB895D
:10126000808185FD05C0A889B9898C9186FD0FC054
:101270000FB607FCF5CF808185FFF2CFA889B98929
:101280008C9185FFEDCFCE010E94C008E7CFDF91A2
:10129000CF91089580E090E0892B29F00E94B60854
:1012A00081110C9400000895833081F028F481307E
:1012B00099F08230A1F008958730A9F08830B9F014
:1012C0008430D1F4809180008F7D03C080918000B4
:1012D0008F7780938000089584B58F7702C084B59E
:1012E0008F7D84BD08958091B0008F7703C0809179
:1012F000B0008F7D8093B00008952FB7F89460916F
:10130000DD047091DE048091DF049091E0042FBF32
:1013100008950E94B5131F920F920FB60F921124D9
:101320002F933F934F935F936F937F938F939F93ED
:10133000AF93BF93EF93FF938AE595E00E94C008B7
:10134000FF91EF91BF91AF919F918F917F916F919D
:101350005F914F913F912F910F900FBE0F901F9073
:1013600018951F920F920FB60F9211242F938F93FF
:101370009F93EF93FF93E0916A05F0916B05808155
:10138000E0917005F091710582FD12C0908180910D
:1013900073058F5F8F7320917405821751F0E09170
:1013A0007305F0E0E65AFA4F958F8093730501C0FC
:1013B0008081FF91EF919F918F912F910F900FBEA0
:1013C0000F901F901895CF93DF93282F30E0F901ED
:1013D000E255FF4F8491F901E656FF4FD491F90190
:1013E000EA57FF4FC491CC2391F081110E94540918
:1013F000EC2FF0E0EE0FFF1FE458FF4FA591B491E2
:10140000EC91ED2381E090E021F480E002C080E0E7
:1014100090E0DF91CF9108951F93CF93DF93282F12
:1014200030E0F901E255FF4F8491F901E656FF4F94
:10143000D491F901EA57FF4FC491CC23C9F0162F7C
:1014400081110E945409EC2FF0E0EE0FFF1FEE58BF
:10145000FF4FA591B4918FB7F894111105C09C91DD
:10146000ED2FE095E92302C0EC91ED2BEC938FBFBB
:10147000DF91CF911F910895CF93DF9390E0FC010E
:10148000E656FF4F2491FC01EA57FF4F84918823D1
:1014900061F190E0880F991FFC01E859FF4FC59159
:1014A000D491FC01EE58FF4FA591B491611109C090
:1014B0009FB7F8948881209582238883EC912E230E
:1014C0000BC0623061F49FB7F8943881822F809509
:1014D00083238883EC912E2B2C939FBF06C08FB75C
:1014E000F894E8812E2B28838FBFDF91CF91089548
:1014F0003FB7F8948091E1049091E204A091E30455
:10150000B091E40426B5A89B05C02F3F19F00196C1
:10151000A11DB11D3FBFBA2FA92F982F8827820F79
:10152000911DA11DB11DBC01CD0142E0660F771FC9
:10153000881F991F4A95D1F708958F929F92AF9275
:10154000BF92CF92DF92EF92FF926B017C010E94DB
:10155000780A4B015C01C114D104E104F104F1F0FB
:101560000E94780ADC01CB0188199909AA09BB09F4
:10157000883E9340A105B10570F321E0C21AD1085D
:10158000E108F10888EE880E83E0981EA11CB11CCA
:10159000C114D104E104F10419F7DDCFFF90EF90FD
:1015A000DF90CF90BF90AF909F908F9008950F9352
:1015B0001F93CF93DF930E947D096093EB04709398
:1015C000EC048093ED049093EE048091DA04909102
:1015D000DB04039724F01092DB041092DA0480916C
:1015E000DA049091DB0497FF06C082E090E09093CC
:1015F000DB048093DA0404E011E0C0E0D0E08091E5
:10160000DA049091DB04C817D90711F461E001C036
:1016100060E0F80180810E940C0A21960E5F1F4F46
:10162000C330D10561F76CE271E080E090E0DF91BA
:10163000CF911F910F910C949D0A1F920F920FB69C
:101640000F9211242F933F938F939F93AF93BF9348
:101650008091DD049091DE04A091DF04B091E0045C
:101660003091DC0423E0230F2D3720F40196A11DD7
:10167000B11D05C026E8230F0296A11DB11D2093C0
:10168000DC048093DD049093DE04A093DF04B09328
:10169000E0048091E1049091E204A091E304B09110
:1016A000E4040196A11DB11D8093E1049093E2042E
:1016B000A093E304B093E404BF91AF919F918F9105
:1016C0003F912F910F900FBE0F901F901895CF92C2
:1016D000DF92EF92FF92CF93DF93EC01072E000C85
:1016E000880B990B0E94D6146B017C0120E030E03E
:1016F00040E45FE30E94861520E030E048E452E4D5
:101700000E942C140E949E14C617D707D4F020E024
:1017100030E040EA5FE3C701B6010E94861520E091
:1017200030E048E452E40E942C1420E030E040E82D
:101730005FE30E94BB130E949E1421E06C177D079B
:101740000CF420E0822F90E0DF91CF91FF90EF909A
:10175000DF90CF90089585ED8093BC008091BC0010
:1017600084FDFCCF1092490508950895E09112057B
:1017700080911105E81730F4F0E0EF50FB4F8081C5
:1017800090E008958FEF9FEF08959091120580915A
:101790001105981750F4E92FF0E0EF50FB4F20812E
:1017A00030E09F5F9093120502C02FEF3FEFC90119
:1017B00008958091110590E020911205821B9109F6
:1017C0000895CF92DF92EF92FF920F931F93CF93E2
:1017D000DF937C018A0180914A05882389F0EB011F
:1017E0006B01C40ED51ECC15DD05F1F06991D70152
:1017F000ED91FC910190F081E02DC7010995F3CFA7
:10180000842F413288F490914905943069F44093D3
:10181000EC06FB012AEC36E0D9019A2F921B9817AF
:1018200018F491919D93F9CFC801DF91CF911F9149
:101830000F91FF90EF90DF90CF90089520914A058F
:101840002223C9F020914D05203240F021E030E004
:10185000FC013383228380E090E0089580914B0562
:10186000E82FF0E0EF5EF84F60838F5F80934B05C9
:1018700080934D0509C080914905843029F481E0A9
:101880008093EC066093CA0681E090E00895682F8B
:101890008EE495E00C941E0C20914D0590914C0522
:1018A000213208F046C0809149058111FCCF32E019
:1018B0003093490531E0309348053FEF30934705B9
:1018C0001092460520934505A1E1B7E045E255E0B9
:1018D000FA013E2F341B321718F43D913193F9CFA2
:1018E0001092240520912405990F922B90932405A2
:1018F00090912305913041F4109223059091240595
:101900009093BB0095EC01C095EE9093BC00909134
:1019100049059230E1F3909147059F3F79F080911E
:101920004705803241F080914705803331F084E0F3
:1019300005C081E003C082E001C083E010924B0546
:1019400010924D0510924A0508958F929F92AF9282
:10195000BF92CF92DF92EF92FF920F931F93CF939C
:10196000DF93FC01C081D18120911F0530912005BA
:10197000C217D3070CF04BC09E01220F331FE0911A
:101980001D05F0911E05E20FF31F80809180C1704C
:10199000DD27F1E0CF27209719F404E610E002C01C
:1019A0000CE91FEF7A015B016C01040F151FB801F0
:1019B000C4010E94670B892B99F40E0D1F1DB801FD
:1019C000C4010E94670B892B71F4B8016E0D7F1D55
:1019D000C4010E94670B892BE9F023E030E005C0C9
:1019E00021E030E002C022E030E0F5018081918109
:1019F0000196821793073CF0F50111821082F601DF
:101A000080819181019691838083CE0105C081E020
:101A100090E002C08FEF9FEFDF91CF911F910F9168
:101A2000FF90EF90DF90CF90BF90AF909F908F90FE
:101A30000895009769F0FC0101900020E9F73197C3
:101A4000AF01481B590BBC018AE595E00C944A088C
:101A500080E090E008958F929F92AF92BF920F9393
:101A60001F93CF93DF93CDB7DEB7A1970FB6F8944E
:101A7000DEBF0FBECDBF19A2423008F44AE08E018E
:101A80000F5D1F4F842E912CA12CB12CA501940128
:101A90000E940316E62FB901CA0101501109EA306C
:101AA00014F4E05D01C0E95CD801EC93232B242BF6
:101AB000252B61F7C8010E94190DA1960FB6F89465
:101AC000DEBF0FBECDBFDF91CF911F910F91BF90B1
:101AD000AF909F908F900895CF92DF92EF92FF92F8
:101AE000CF93DF936C01990FEE08FF08F7FE1FC03C
:101AF000E0915A05F0915B050190F081E02D6DE2D7
:101B00008AE595E00995EC0166277727CB016C19EA
:101B10007D098E099F094AE00E942B0D8C0F9D1FA5
:101B2000DF91CF91FF90EF90DF90CF9008954AE042
:101B3000C701B601DF91CF91FF90EF90DF90CF907A
:101B40000C942B0D1F920F920FB60F9211242F930E
:101B50003F934F935F936F937F938F939F93AF9335
:101B6000BF93EF93FF938091F8050E94E3092091C2
:101B7000FC053091FD052F5F3F4F3093FD0520930D
:101B8000FC059091FB05953618F096E09093F705CB
:101B90009091F7059430C9F128F4923069F09330B0
:101BA000D1F05EC0953009F451C0963009F058C0AC
:101BB00091E09093C80651C0811152C02091FC055C
:101BC0003091FD052436310508F442C01092C80654
:101BD0001092FB051CC0813009F042C0E091FB056A
:101BE00091E09E0F9093FB05F0E02091FC05309171
:101BF000FD05EE0FFF1FE950FA4F30872783109243
:101C0000FD051092FC0594E029C0811117C0E091F8
:101C1000FB0591E09E0F9093FB05F0E02091FC0501
:101C20003091FD05EE0FFF1FE950FA4F30872783F3
:101C30001092FD051092FC0593E010C02091FC0568
:101C40003091FD052536310558F007C0811108C0D7
:101C50001092FD051092FC0503C095E09093F705E6
:101C60009091FA059923B9F081110AC08091F90584
:101C7000882321F08091F90561E009C02D9A0BC0FD
:101C80008091F905882331F08091F90560E00E9488
:101C90000C0A01C02D98FF91EF91BF91AF919F91D8
:101CA0008F917F916F915F914F913F912F910F9005
:101CB0000FBE0F901F9018951F920F920FB60F92A4
:101CC00011242F933F934F935F936F937F938F9341
:101CD0009F93AF93BF93EF93FF938091B900887F59
:101CE000803609F49CC068F5883209F45BC090F432
:101CF000803109F454C038F4882309F4F3C08830E3
:101D000009F44DC0F3C0883109F44CC0803209F4A5
:101D10005DC0ECC0803409F468C048F4803309F435
:101D200055C0883309F0E2C080934705D5C080359F
:101D300009F44FC0883509F45DC0883409F0D6C075
:101D4000D3C0883909F4C4C0A8F4883709F467C03F
:101D500038F4883609F463C0803709F460C0C6C01F
:101D6000883809F4B5C0803909F45FC0803809F0BB
:101D7000BDC05BC0803B09F483C038F4803A09F4ED
:101D800066C0883A09F47CC0B1C0803C09F4A4C0A4
:101D9000883C09F4A1C0883B09F487C0A7C08091A2
:101DA000240510C09091460580914505981770F55F
:101DB000E091460581E08E0F80934605F0E0EB5DF3
:101DC000FA4F80818093BB0085EC83C080934705E8
:101DD0008BC0E091460581E08E0F8093460580918F
:101DE000BB00F0E0EB5DFA4F808390914605809157
:101DF00045056BC0E091460581E08E0F8093460556
:101E00008091BB00F0E0EB5DFA4F80838091480544
:101E100081116AC081E08093230584EA5EC083E07B
:101E20008093490510921007CFCF80911007803220
:101E300008F04EC0E091100781E08E0F80931007EC
:101E40008091BB00F0E0E051F94F8083BDCF8091DD
:101E50001007803230F4E0911007F0E0E051F94FC4
:101E600010820E94AB0B6091100770E0E091EE06CB
:101E7000F091EF0680EF96E00995109210072CC0C4
:101E800084E0809349051092ED061092EC06E091F3
:101E9000EA06F091EB0609958091EC06811105C0E8
:101EA00081E08093EC061092CA06E091ED0681E095
:101EB0008E0F8093ED06F0E0E653F94F808180931A
:101EC000BB009091ED068091EC06981708F47CCF4A
:101ED00085E88093BC000AC085EC8093BC0010921A
:101EE000490504C0109247050E94AB0BFF91EF918A
:101EF000BF91AF919F918F917F916F915F914F9122
:101F00003F912F910F900FBE0F901F9018958F92B9
:101F10009F92AF92BF92CF92DF92EF92FF926B01AE
:101F20007C010E94780A4B015C0184E0C81AD10848
:101F3000E108F108C80CD91CEA1CFB1CC814D90420
:101F4000EA04FB0438F40E94780A86169706A8066D
:101F5000B906C8F30E94780A6C157D058E059F05A9
:101F6000C8F3FF90EF90DF90CF90BF90AF909F901D
:101F70008F900895CF92DF92EF92FF920F931F936D
:101F8000CF93DF931F92CDB7DEB7F82E8B0110925F
:101F9000700061E083E099830E943C0A60E083E086
:101FA0000E940C0A81E08093B00089E08093B10028
:101FB00082ED8093B30086E48093B400CF2C9981A6
:101FC000D92EE12CF12CE016F106F8F4F60160812F
:101FD00071818091B000E0FE02C08F7D01C08062FF
:101FE0008093B0006115710549F080E090E06530A4
:101FF00071058105910510F00E94870FFFEFEF1A20
:10200000FF0A82E0C80ED11CDECF8091B0008F7D28
:102010008093B000E091DA04F091DB04EE0FFF1F33
:10202000EC5FFE4F60E080810E940C0A68EC70E07B
:1020300080E090E00E949D0AE091DA04F091DB04D8
:10204000EE0FFF1FEC5FFE4F61E080810F90DF918C
:10205000CF911F910F91FF90EF90DF90CF900C9454
:102060000C0A789484B5826084BD84B5816084BD97
:1020700085B5826085BD85B5816085BD80916E0026
:10208000816080936E001092810080918100826057
:102090008093810080918100816080938100809194
:1020A00080008160809380008091B1008460809383
:1020B000B1008091B00081608093B00080917A007F
:1020C000846080937A0080917A00826080937A00A5
:1020D00080917A00816080937A0080917A00806894
:1020E00080937A001092C100E0916A05F0916B052F
:1020F00082E08083E0916A05F0916B051082E091A7
:102100006605F09167051082E0916805F091690518
:1021100080E1808310927205E0916E05F0916F0569
:1021200086E08083E0916C05F0916D05808180618F
:102130008083E0916C05F0916D05808188608083DB
:10214000E0916C05F0916D05808180688083E0915D
:102150006C05F0916D0580818F7D80831092120552
:102160001092110510924B0510924D0510924905E1
:1021700081E0809348051092230561E082E10E948E
:102180000C0A61E083E10E940C0A8091B9008E7F05
:102190008093B9008091B9008D7F8093B90088E465
:1021A0008093B80085E48093BC0060E087E00E94E3
:1021B0003C0A60E086E00E943C0A60E085E00E9404
:1021C0003C0A60E084E00E943C0A61E08DE00E94ED
:1021D0003C0A61E08CE00E943C0A61E089E00E94D8
:1021E0003C0A61E08AE00E943C0A61E08BE00E94C8
:1021F0003C0AC0E0D0E011E000E5FF24FA9425EEAF
:10220000B22E35ECA32E41EFC42E44E0D42E109311
:102210004A0500934C0510924B0510924D058D2FE9
:1022200090E00E94470CCE0199270E94470C0E9423
:102230004C0C809149058111FCCF109349051093F6
:102240004805F092470510924605109245051093F7
:10225000240580912405806A8093240580912305BC
:10226000813049F410922305809124058093BB00AE
:10227000A092BC0002C0B092BC00809149058130A0
:10228000E1F380914605811103C08091460501C0AC
:1022900081E0A5E2B5E0E1EFF4E09E2F9C199817EC
:1022A00018F49D919193F9CF109212058093110526
:1022B000882341F08EE495E00E94C50BFE01E65BA9
:1022C000FE4F80832196C03923E0D20709F09FCFCB
:1022D000C3E0D0E061E08DE00E940C0A6CE271E0A6
:1022E00080E090E00E949D0A60E08DE00E940C0A70
:1022F0006CE271E080E090E00E949D0A219751F726
:1023000061E08DE00E940C0A0E94D70A90E4F92E49
:1023100001E010E0C0E3D1E0F0927C0080917A000F
:10232000806480937A0080917A0086FDFCCF809152
:1023300078002091790090E0922B092E000CAA0BD6
:10234000BB0B8093000190930101A0930201B09315
:10235000030184E00E94E309892B09F4CFC00E94A5
:102360007D094B015C018EE291E00E94190D4AE06B
:10237000C501B4010E942B0D8CE391E00E94190D60
:102380000E947D094AE00E942B0D8FE391E00E949C
:10239000190D84E00E94E309892BE1F00E947D0978
:1023A000DC01CB0188199909AA09BB09883B9B402C
:1023B000A105B10540F01093E8040093E70461E043
:1023C0008CE00E940C0A69E170E080E090E00E94DD
:1023D0009D0ADFCF8091E7049091E804892B09F4EE
:1023E0008DC00E947D094B015C018091E7049091B2
:1023F000E804892B09F456C00E947D09DC01CB0159
:1024000088199909AA09BB09883C9105A105B1055C
:1024100020F460E08CE00E940C0A0E947D09DC013F
:10242000CB0188199909AA09BB09893C9105A10525
:10243000B10520F061E08CE00E940C0A0E947D0949
:10244000DC01CB0188199909AA09BB09813991409E
:10245000A105B10520F00E947D094B015C0184E0DB
:102460000E94E3093C019093E6048093E50487E031
:102470000E94E3096C019093EA048093E90486E0EA
:102480000E94E3099093F0048093EF04672829F4F5
:10249000892B19F4CD2809F4A8CF1092E8041092E2
:1024A000E704A3CF8091E9049091EA04892B41F0DD
:1024B0001092EA041092E90480E090E00E948C00FF
:1024C0008091EF049091F004892B41F01092F00478
:1024D0001092EF0481E090E00E948C0060E08CE0BC
:1024E0000E940C0AE091DA04F091DB04EE0FFF1F6A
:1024F000EC5FFE4F61E080810E940C0A85E00E9443
:10250000E309892B59F487E00E94E309892B09F438
:1025100050C00E947D094B015C011DC08091DA040E
:102520009091DB0401969093DB048093DA040E947F
:10253000D70A85E00E94E309892BD9F7E4CF86E02A
:102540000E94E309892BE1F486E00E94E30990935D
:10255000F0048093EF040E947D09DC01CB0188190F
:102560009909AA09BB0940910001509101016091AC
:1025700002017091030184179507A607B707F8F2C7
:1025800069E170E080E090E00E949D0A8091EF0494
:102590009091F0042091DA043091DB04019709F066
:1025A0007AC0215031093093DB042093DA040E9471
:1025B000D70A86E00E94E309892B09F43FC00E94F4
:1025C0007D094B015C010E947D09DC01CB0188196A
:1025D0009909AA09BB09409100015091010160913C
:1025E00002017091030184179507A607B70768F4E5
:1025F00087E00E94E309892B41F487E00E94E30908
:102600009093EA048093E904DECF69E170E080E012
:1026100090E00E949D0A8091E9049091EA04209143
:10262000DA043091DB04019709F046C02F5F3F4F79
:102630003093DB042093DA040E94D70A82E491E00D
:102640000E94190D86E00E94E3090E946C0D8091A2
:10265000EF049091F0040E946C0D8091DA04909147
:10266000DB04892BA9F00E947D098090EB049090F7
:10267000EC04A090ED04B090EE04DC01CB018819CD
:102680009909AA09BB0981329E44A105B10528F523
:102690000E944A0941CE2C9FC0012D9F900D3C9F66
:1026A000900D1124FC01E65BFE4F60817181845B1B
:1026B0009E4F0E94BA0F7DCF2C9FC0012D9F900D81
:1026C0003C9F900D1124FC01EE51FE4F6081718101
:1026D0008C519E4F0E94BA0FB1CF1092DB04109222
:1026E000DA040E94D70AD4CFEEE4F5E01382128216
:1026F00088EE93E0A0E0B0E084839583A683B7835F
:102700002EE031E031832083EAE5F5E01382128286
:1027100084839583A683B78380E291E0918380834D
:1027200085EC90E09587848784EC90E09787868796
:1027300080EC90E0918B808B81EC90E0938B828B8E
:1027400082EC90E0958B848B86EC90E0978B868B67
:10275000118E128E138E148EE7EFF5E088E08183E0
:1027600013820895F8940C947C1681E090E0F8941C
:102770000C947C165058BB27AA270E94D2130C94A5
:102780004C150E943E1538F00E94451520F039F492
:102790009F3F19F426F40C943B150EF4E095E7FBEB
:1027A0000C943515E92F0E945D1558F3BA1762078E
:1027B00073078407950720F079F4A6F50C947F152C
:1027C0000EF4E0950B2EBA2FA02D0B01B90190014C
:1027D0000C01CA01A0011124FF27591B99F0593F90
:1027E00050F4503E68F11A16F040A22F232F342FD8
:1027F0004427585FF3CF469537952795A795F04026
:102800005395C9F77EF41F16BA0B620B730B840B3A
:10281000BAF09150A1F0FF0FBB1F661F771F881FF2
:10282000C2F70EC0BA0F621F731F841F48F487954A
:1028300077956795B795F7959E3F08F0B0CF93953C
:10284000880F08F09927EE0F9795879508950E94B5
:10285000111508F481E008950E9440140C944C1561
:102860000E94451558F00E943E1540F029F45F3F44
:1028700029F00C94351551110C9480150C943B15CE
:102880000E945D1568F39923B1F3552391F3951BCD
:10289000550BBB27AA2762177307840738F09F5F81
:1028A0005F4F220F331F441FAA1FA9F335D00E2EEE
:1028B0003AF0E0E832D091505040E695001CCAF75B
:1028C0002BD0FE2F29D0660F771F881FBB1F26171E
:1028D00037074807AB07B0E809F0BB0B802DBF01F5
:1028E000FF2793585F4F3AF09E3F510578F00C94C4
:1028F00035150C9480155F3FE4F3983ED4F386952C
:1029000077956795B795F7959F5FC9F7880F911DE4
:102910009695879597F90895E1E0660F771F881FD0
:10292000BB1F621773078407BA0720F0621B730B83
:10293000840BBA0BEE1F88F7E09508950E94A5144A
:102940006894B1110C94801508950E94651588F063
:102950009F5798F0B92F9927B751B0F0E1F0660F63
:10296000771F881F991F1AF0BA95C9F714C0B130A4
:1029700091F00E947F15B1E008950C947F15672FA8
:10298000782F8827B85F39F0B93FCCF386957795D3
:102990006795B395D9F73EF49095809570956195BC
:1029A0007F4F8F4F9F4F0895E89409C097FB3EF4E7
:1029B00090958095709561957F4F8F4F9F4F99238C
:1029C000A9F0F92F96E9BB279395F695879577950A
:1029D0006795B795F111F8CFFAF4BB0F11F460FFCA
:1029E0001BC06F5F7F4F8F4F9F4F16C0882311F022
:1029F00096E911C0772321F09EE8872F762F05C036
:102A0000662371F096E8862F70E060E02AF09A95D0
:102A1000660F771F881FDAF7880F9695879597F9C5
:102A20000895990F0008550FAA0BE0E8FEEF16165F
:102A30001706E807F907C0F012161306E407F507B2
:102A400098F0621B730B840B950B39F40A2661F026
:102A5000232B242B252B21F408950A2609F4A140C9
:102A6000A6958FEF811D811D089597F99F6780E8D6
:102A700070E060E008959FEF80EC089500240A94D0
:102A80001616170618060906089500240A94121649
:102A90001306140605060895092E0394000C11F47C
:102AA000882352F0BB0F40F4BF2B11F460FF04C029
:102AB0006F5F7F4F8F4F9F4F089557FD9058440F82
:102AC000551F59F05F3F71F04795880F97FB991F8D
:102AD00061F09F3F79F0879508951216130614064A
:102AE000551FF2CF4695F1DF08C0161617061806D7
:102AF000991FF1CF86957105610508940895E894B2
:102B0000BB2766277727CB0197F908950E9499156F
:102B10000C944C150E943E1538F00E94451520F08B
:102B2000952311F00C9435150C943B1511240C943D
:102B300080150E945D1570F3959FC1F3950F50E0CD
:102B4000551F629FF001729FBB27F00DB11D639F5F
:102B5000AA27F00DB11DAA1F649F6627B00DA11D05
:102B6000661F829F2227B00DA11D621F739FB00DAB
:102B7000A11D621F839FA00D611D221F749F33271B
:102B8000A00D611D231F849F600D211D822F762FB4
:102B90006A2F11249F5750409AF0F1F088234AF091
:102BA000EE0FFF1FBB1F661F771F881F91505040FD
:102BB000A9F79E3F510580F00C9435150C948015B3
:102BC0005F3FE4F3983ED4F3869577956795B79584
:102BD000F795E7959F5FC1F7FE2B880F911D96959E
:102BE000879597F90895DB018F939F930E9425168F
:102BF000BF91AF91A29F800D911DA39F900DB29F99
:102C0000900D11240895A1E21A2EAA1BBB1BFD01F1
:102C10000DC0AA1FBB1FEE1FFF1FA217B307E407BB
:102C2000F50720F0A21BB30BE40BF50B661F771F13
:102C3000881F991F1A9469F76095709580959095F3
:102C40009B01AC01BD01CF0108950E946D16A59FA7
:102C5000900DB49F900DA49F800D911D1124089597
:102C60000F93083090F0982F872F762F652F542FD1
:102C7000432F322F22270850F4CF220F331F441F37
:102C8000551F661F771F881F991F0A95B2F70F916E
:102C9000089597FB10F8169400080F93083098F0E9
:102CA0000850232F342F452F562F672F782F892F29
:102CB000902DF4CF059497958795779567955795BF
:102CC0004795379527950A95AAF70F910895EE0F26
:102CD000FF1F0590F491E02D0994A29FB001B39FCE
:102CE000C001A39F700D811D1124911DB29F700D15
:0C2CF000811D1124911D0895F894FFCF60
:102CFC009600000009000A000B00000000001E0CEA
:102D0C00E10B7608B50BD90BC50BB60B0000000018
:102D1C00E1084A0879082809AA0888089C08204C68
:102D2C006561726E2054696D65723A002020000D49
:0A2D3C000A00446F776E3A20000091
:00000001FF
