:100000000C9462000C948A000C948A000C948A0070
:100010000C948A000C948A000C948A000C941B0B9C
:100020000C948A000C948A000C948A000C948A0028
:100030000C948A000C948A000C948A000C948A0018
:100040000C945C0E0C948A000C9457090C943109A2
:100050000C948A000C948A000C948A000C948A00F8
:100060000C94D50B0C948A0000000000240027009B
:100070002A0000000000250028002B0000000000DE
:1000800023002600290004040404040404040202DA
:100090000202020203030303030301020408102007
:1000A0004080010204081020010204081020000012
:1000B0000008000201000003040700000000000027
:1000C0000000461211241FBECFEFD8E0DEBFCDBF27
:1000D00011E0A0E0B1E0ECEBFAE202C005900D9275
:1000E000AA34B107D9F726E0AAE4B1E001C01D9215
:1000F000A03FB207E1F710E0C2E6D0E004C02197CC
:10010000FE010E944715C136D107C9F70E94630F4F
:100110000C9484120C9400002F923F924F925F92A5
:100120006F927F928F929F92AF92BF92CF92DF9207
:10013000EF92FF920F931F93CF93DF93CDB7DEB76C
:100140002A970FB6F894DEBF0FBECDBF8C0161E0D9
:100150008CE00E94850DF89492E09093B00090930B
:10016000B10084E68093B3001092B20090937000C7
:1001700078949093A9051092AD058091AA0560E04E
:100180000E94B50D88E9809F9001819F300D112458
:100190003E832D8322242394312C3A872987882477
:1001A0008394912C83E0A82EB12C2114310409F4FE
:1001B00033C784E00E945C0D892B09F02DC7E0EB6A
:1001C000F5E0F093FB04E093FA048091AD0590E034
:1001D0009093FD048093FC0480917A0690E09093C4
:1001E000FF048093FE048091A9058530F1F680918B
:1001F000B2059091B305885891098D35910588F421
:100200008091AD05843041F48091B4059091B5059D
:100210008097479708F4F9C18091AD05843408F0C0
:10022000DBC18091AD058A3108F452C08091B005E0
:100230009091B105843F914080F41092F90410929E
:10024000F8048FEF9FEFDC018093F4049093F504A2
:10025000A093F604B093F70459C08091B205909131
:10026000B30585974B97A0F5E6EBF5E082E090E0CB
:10027000C12CD12C7601AC014F5F5F4F2091AD05B1
:1002800030E0421753075CF4DF0112972D913C9147
:10029000275031092730310508F400C2CA010197FF
:1002A000959587959093F9048093F8040C972CF416
:1002B0001092F9041092F8040BC0C092F404D0928A
:1002C000F504E092F604F092F70484E090E008C3AD
:1002D0008091AD058A3108F44CC08091B0059091B1
:1002E000B1058032934008F4A8CF8091B205909177
:1002F000B305C697869708F4EEC13BC0C092F404DC
:10030000D092F504E092F604F092F7048BE090E0CE
:10031000E7C220813181255231092B31310508F0A6
:10032000EAC1CC0CDD1CEE1CFF1C6894C0F80296E0
:100330003496AC014F5F5F4F2091AD0530E042171E
:10034000530754F4DF0112972D913C912C50310941
:100350002B303105F0F2CA0101979595879590935E
:10036000F9048093F8040C974CF61092F90410925B
:10037000F8048091AD05823208F44DC08091B20539
:100380009091B3050697079708F045C0E6EBF5E0B6
:1003900082E090E0C12CD12C76019C012F5F3F4F71
:1003A0004091AD0550E024173507E4F4DF011297C2
:1003B0004D915C9111974E5151094731510508F00B
:1003C000A7C1CC0CDD1CEE1CFF1C6894C0F840815A
:1003D00051813496435051094530510510F402962D
:1003E000DCCFC9010197959587959093F904809387
:1003F000F80440972CF41092F9041092F8040BC002
:10040000C092F404D092F504E092F604F092F7045E
:100410008CE090E065C21C821B829A828982809166
:10042000AD058D3008F46BC049E753E0BE016D5F48
:100430007F4FCE0101960E941E0A892B09F05FC0F2
:1004400049E753E0BE016D5F7F4FCE0101960E94E8
:100450001E0A019709F053C049E753E0BE016D5FE2
:100460007F4FCE0101960E941E0A892B09F047C0DA
:10047000412C512C320100E010E08091AD0590E05C
:1004800029813A81281739075CF549E753E0BE0115
:100490006D5F7F4FCE0101960E941E0A7C0149E7E5
:1004A00053E0BE016D5F7F4FCE0101960E941E0A90
:1004B000B1E0EB16F10449F4892B09F5440C551C05
:1004C000661C771C689440F808C0EF28C1F40197B7
:1004D000B1F4440C551C661C771C0F5F1F4FCDCF29
:1004E0001093F9040093F8044092F4045092F50438
:1004F0006092F6047092F70481E090E0F1C11C82F2
:100500001B829A8289828091FC049091FD041816C6
:1005100019060CF056C0E091FA04F091FB0422E0B9
:1005200030E03A8329838281938189974E9708F03E
:1005300048C0BA82A982848195810B970A9708F0F6
:1005400040C04CEB51E0BE016D5F7F4FCE01019684
:100550000E941E0A892BA9F54CEB51E0BE016D5F8C
:100560007F4FCE0101960E941E0A019751F5412C42
:10057000512C320100E010E029813A818091FC0485
:100580009091FD04281739070CF005C14CEB51E0A0
:10059000BE016D5F7F4FCE0101960E941E0A7C0155
:1005A0000330110509F0C1C04CEB51E0BE016D5F95
:1005B0007F4FCE0101960E941E0AE816F90609F443
:1005C000B4C0E091FA04F091FB0482819381C69754
:1005D000869708F4EFC01EC28091B4059091B505CE
:1005E000825491098E9708F01CCE80E090E040E0A4
:1005F00050E0BA01FC01EA54FA4F208131812950C0
:10060000310929303105C8F00CCE8091B6059091A2
:10061000B7050997099708F0FFCD1092F9041092D9
:10062000F8048FEF9FEFDC018093F4049093F504BE
:10063000A093F604B093F70421C0FC01E854FA4FEC
:10064000208131812751310922313105D0F4440F05
:10065000551F661F771F416004968038910551F63B
:1006600080E290E09093F9048093F8044093F404BE
:100670005093F5046093F6047093F70483E090E0E0
:100680002FC120813181265031092730310508F0F2
:10069000C8CD440F551F661F771FDECF20813181E3
:1006A000235131092F30310548F4CC0CDD1CEE1CF0
:1006B000FF1C6894C0F802963496DDCD208131810C
:1006C0002A5031092930310508F002CECC0CDD1C4E
:1006D000EE1CFF1CF0CF8091B4059091B505C69734
:1006E000869708F046CEE8EBF5E083E090E0C12C79
:1006F000D12C76011ECE208131812C5031092A3037
:10070000310508F036CECC0CDD1CEE1CFF1C0FCEE4
:100710004D915C914C5051094B30510508F07BCE06
:10072000CC0CDD1CEE1CFF1C52CE4CEB51E0BE018C
:100730006D5F7F4FCE0101960E941E0A6C0103304F
:10074000110569F44CEB51E0BE016D5F7F4FCE01A6
:1007500001960E941E0AC816D90609F032CFE1148C
:10076000F10459F4CA94CD2809F02BCF440C551C40
:10077000661C771C689440F80BC0EA94EF2809F0D7
:1007800020CFCD2809F01DCF440C551C661C771CCA
:100790000F5F1F4FF1CE1093F9040093F8044092BD
:1007A000F4045092F5046092F6047092F70482E02B
:1007B00090E096C0848195814B97459708F02AC1B7
:1007C000DF0116967F0126ECE20EF11C20E030E0FE
:1007D00040E050E060E070E080E090E00D911C911E
:1007E0001197095011090830110508F013C112962C
:1007F0000D911C911397015111090D30110520F530
:1008000001E00E94101521601496AE15BF0531F766
:100810002093F4043093F5044093F6045093F704C6
:1008200000E20E942B152093F2043093F30485E03C
:1008300090E09093F1048093F00480E390E0909333
:10084000F9048093F80450C012960D911C911397EF
:10085000045011090530110508F0DCC001E00E94C8
:100860001015D2CFA80142505109DA014D915C9187
:10087000495051094830510508F07AC1BC016F5FF9
:100880007F4FD8014D915C91475051094730510538
:1008900008F06EC3220F331F216002960C5F1F4FBA
:1008A0004091AD0550E04450510984179507D4F2AA
:1008B0000197959587959093F9048093F8048A970A
:1008C0000CF456C1C901330FAA0BBB0B8093F4047F
:1008D0009093F504A093F604B093F70489E090E0B8
:1008E0009093F1048093F00403E010E061E08CE069
:1008F0000E94850D6DE270E080E090E00E94160E8F
:1009000060E08CE00E94850D6EE170E080E090E098
:100910000E94160E0150110949F7E091DF04F09191
:10092000E004EE0FFF1FEC5FFE4F60E080810E944D
:10093000850D64E670E080E090E00E94160EE09184
:10094000DF04F091E004EE0FFF1FEC5FFE4F61E06B
:1009500080810E94850D4091FC045091FD04A0917E
:10096000FA04B091FB046091DF047091E00480E32D
:1009700091E0689F9001699F300D789F300D1124A0
:100980008D819E81280F391F81E090E0E2E3DE2E09
:100990001296841795079CF4ED90FC901197FC013A
:1009A000EE0FFF1FE20FF31FE55BFE4FDE9C8001A1
:1009B000DF9C100D1124118300830196E9CF80E3A1
:1009C00091E0689FF001699FF00D789FF00D112470
:1009D000A985BA85EA0FFB1FE55BFE4F5183408373
:1009E0009BE4E92E91E0F92E00E010E0F70161911F
:1009F0007F01C8010E9487120F5F1F4F0039F3E08B
:100A00001F07A1F782E08093A9051092AD05212C64
:100A1000312CC5CB8091AD05893370F182819381F2
:100A2000895791098335910508F442C125C0D90140
:100A300012966D917C911397665171096131710520
:100A400008F062C1D701C601880F991FAA1FBB1FFA
:100A50006C017D016894C0F84E5F5F4F2C5F3F4F83
:100A60004B33510509F433C1D9016D917C916A5022
:100A7000710969307105D8F28091AD05823231F487
:100A8000828193810A97099708F44EC182819381EC
:100A90008957910983359105D0F48091AD05813254
:100AA000B0F084819581CA97899788F49F012A5F65
:100AB0003F4FC12CD12C760143E050E0D9016D911C
:100AC0007C916A5071096930710508F44CC18281CA
:100AD00093818C549109C59778F48091AD05843049
:100AE00031F4848195818097479708F49CC1809167
:100AF000AD05843408F07EC18091AD05863460F187
:100B0000828193810C970B9708F4DBC125C0D90132
:100B100012966D917C9113976E5171096731710531
:100B200008F007C2D701C601880F991FAA1FBB1F73
:100B30006C017D016894C0F84E5F5F4F2C5F3F4FA2
:100B40004534510509F4D8C1D9016D917C916C509F
:100B500071096B307105D8F28091AD05883540F090
:100B600082819381855891098B35910508F4F1C1F3
:100B70008091AD058032E1F48281938106970697DA
:100B8000B8F4848195810997099790F49F012A5FB1
:100B90003F4FBF01625C7F4FC12CD12C7601D90140
:100BA0004D915C91465051094630510508F4EDC114
:100BB0002091FC043091FD0438872F8326303105C5
:100BC0000CF41EC28F010A5F1F4FB3E02B2E312C95
:100BD00085ECC82E8DE9D82E8CE1E82E81E8F82E20
:100BE000EF81F8852E163F060CF051C0D8016D91AB
:100BF0007C91F8013497A080B18080E090E00E9461
:100C0000B4132B013C01B50180E090E00E94B413C5
:100C10004B015C012DEC3CEC4CE45FE30E9466145C
:100C20009B01AC01C301B2010E94071387FD17C0ED
:100C30002DEC3CEC4CE45FE3C301B2010E9466146E
:100C40009B01AC01C501B4010E940713E82F880F76
:100C5000FF0BEE27FF0FEE1FFF27319602C0E0E0EB
:100C6000F0E0A701960163E971E080E091E00E9465
:100C7000D3146F01FF0FEE08FF08C626D726E8261B
:100C8000F926BFEF2B1A3B0A0E5F1F4FA9CFC09268
:100C9000F404D092F504E092F604F092F70480E2B6
:100CA00090E09093F9048093F8048FEF9FEF18CEB3
:100CB00084819581CA97899708F0DECE9F012A5FCB
:100CC0003F4FC12CD12C760143E050E0CDCE9F01A7
:100CD0002A583F4FD9012D913C912A503109293092
:100CE000310508F0C9CE2CE130E03093F9042093AF
:100CF000F804C092F404D092F504E092F604F09265
:100D0000F7048AE090E0ECCDD90112966D917C91C8
:100D10001397665071096730710508F0ADCECC0CA1
:100D2000DD1CEE1CFF1C98CE2091AD05CF01820F7B
:100D3000911D820F911DDC0112978D919C910A9754
:100D4000099708F0A3CE1092F9041092F8048FEFDF
:100D50009FEFDC018093F4049093F504A093F604D4
:100D6000B093F70453C1D90112966D917C911397FA
:100D7000665171096131710568F5D701C601880FA7
:100D8000991FAA1FBB1F6C017D016894C0F84E5FBC
:100D90005F4F2C5F3F4F4332510509F08FCE9F01CB
:100DA0002A5B3F4FD9012D913C912A5031092930BE
:100DB000310508F08CCE20E130E03093F904209327
:100DC000F804C092F404D092F504E092F604F09294
:100DD000F7041CC1D90112966D917C91139766504E
:100DE00071096730710508F072CECC0CDD1CEE1C69
:100DF000FF1CCDCF8481958189549109C39708F058
:100E00007BCE9F012A5F3F4FBF016A577F4FC12CA6
:100E1000D12C7601D9014D915C914950510949304D
:100E20005105B8F069CE868197810997099708F036
:100E30005ECE1092F9041092F8048FEF9FEFDC0160
:100E40008093F4049093F504A093F604B093F70410
:100E5000E0C0D90112964D915C911397465151090A
:100E600041315105F0F4D701C601880F991FAA1F1F
:100E7000BB1F6C017D016894C0F82C5F3F4F2617A3
:100E8000370741F620E230E03093F9042093F8046C
:100E9000C092F404D092F504E092F604F092F704C4
:100EA000B8C0D90112964D915C91139746505109E3
:100EB0004730510508F020CECC0CDD1CEE1CFF1C89
:100EC000DCCF848195810997099708F045CE86810A
:100ED00097818C974F9708F03FCE808591858997B1
:100EE0004D9708F039CE9F01265F3F4FC12CD12C82
:100EF000760145E050E028CE9F0126573F4FD901AB
:100F00002D913C912C5031092B30310508F024CE25
:100F100020E230E03093F9042093F804C092F40406
:100F2000D092F504E092F604F092F70488E090E0A5
:100F3000D7CCD90112966D917C91139769507109A4
:100F40006930710508F008CECC0CDD1CEE1CFF1CCE
:100F5000F3CD84819581825491098E9708F008CE53
:100F60008F01045C1F4F8DE190E020E030E098CCD1
:100F7000D8014D915C91485151094231510510F011
:100F8000CB0196CC220F331F88CCD90112964D91FC
:100F90005C911397495151094331510508F5D70127
:100FA000C601880F991FAA1FBB1F6C017D016894A1
:100FB000C0F82C5F3F4F2617370709F0F0CD2EE021
:100FC00030E03093F9042093F804C092F404D092F6
:100FD000F504E092F604F092F7048FE090E080CC04
:100FE000D90112964D915C9113974950510949309E
:100FF000510508F0DDCDCC0CDD1CEE1CFF1CD9CF5B
:10100000B2E0B093A9051092AD05CFC886E090E09C
:1010100067CC87E090E064CC2A960FB6F894DEBFE8
:101020000FBECDBFDF91CF911F910F91FF90EF9039
:10103000DF90CF90BF90AF909F908F907F906F90F8
:101040005F904F903F902F900895CF92DF92EF9254
:10105000FF920F931F93CF93DF936C017A018B0163
:10106000C0E0D0E0CE15DF0589F0D8016D918D018B
:10107000D601ED91FC910190F081E02DC60109951A
:10108000892B11F47E0102C02196ECCFC701DF91BC
:10109000CF911F910F91FF90EF90DF90CF90089527
:1010A000089580E090E00895FC01538D448D252F34
:1010B00030E0842F90E0821B930B541710F0CF96F2
:1010C000089501970895FC01918D828D981761F024
:1010D000828DDF01A80FB11D5D968C91928D9F5F6F
:1010E0009F73928F90E008958FEF9FEF0895FC011A
:1010F000918D828D981731F0828DE80FF11D858DCD
:1011000090E008958FEF9FEF0895FC01918D228D5F
:10111000892F90E0805C9F4F821B91098F739927E4
:1011200008958CE095E00E94850821E0892B09F460
:1011300020E0822F0895FC01848DDF01A80FB11DEE
:10114000A35ABF4F2C91848D90E001968F739927FD
:10115000848FA689B7892C93A089B1898C918064EA
:101160008C93938D848D981306C00288F389E02DAB
:1011700080818F7D80830895EF92FF920F931F935C
:10118000CF93DF93EC0181E0888F9B8D8C8D98133A
:1011900005C0E889F989808185FD24C0F62E0B8D74
:1011A00010E00F5F1F4F0F731127E02E8C8DE81298
:1011B0000CC00FB607FCFACFE889F989808185FF5A
:1011C000F5CFCE010E949B08F1CF8B8DFE01E80F79
:1011D000F11DE35AFF4FF0820B8FEA89FB89808172
:1011E000806207C0EE89FF896083E889F989808180
:1011F0008064808381E090E0DF91CF911F910F9117
:10120000FF90EF900895CF93DF93EC01888D8823B2
:10121000C9F0EA89FB89808185FD05C0A889B98963
:101220008C9186FD0FC00FB607FCF5CF808185FF3E
:10123000F2CFA889B9898C9185FFEDCFCE010E94AC
:101240009B08E7CFDF91CF91089580E090E0892B54
:1012500029F00E94910881110C94000008950E94C9
:1012600095121F920F920FB60F9211242F933F9356
:101270004F935F936F937F938F939F93AF93BF939E
:10128000EF93FF938CE095E00E949B08FF91EF9114
:10129000BF91AF919F918F917F916F915F914F918E
:1012A0003F912F910F900FBE0F901F9018951F9296
:1012B0000F920FB60F9211242F938F939F93EF935A
:1012C000FF93E0911C05F0911D058081E0912205BE
:1012D000F091230582FD12C09081809125058F5FDA
:1012E0008F7320912605821751F0E0912505F0E0DB
:1012F000E45FFA4F958F8093250501C08081FF91AF
:10130000EF919F918F912F910F900FBE0F901F9093
:101310001895CF92DF92EF92FF92CF93DF93EC017B
:10132000072E000C880B990B0E94B6136B017C01F1
:1013300020E030E040E45FE30E94661420E030E00B
:1013400048E452E40E940C130E947E13C617D7078C
:10135000D4F020E030E040EA5FE3C701B6010E942C
:10136000661420E030E048E452E40E940C1320E0D0
:1013700030E040E85FE30E949B120E947E1321E070
:101380006C177D070CF420E0822F90E0DF91CF9165
:10139000FF90EF90DF90CF90089585ED8093BC0093
:1013A0008091BC0084FDFCCF1092ED040895089557
:1013B00081E090E03091EC042091EB04321710F4BE
:1013C00080E090E091958195910908958091EC04D9
:1013D0009091EB04891730F48F5F8093EC0480E0E8
:1013E00090E008958FEF9FEF08958091EB0490E0D7
:1013F0002091EC04821B91090895CA01413288F4BE
:101400002091ED04243069F440939E06FB014CE7E3
:1014100056E0DA012A2F241B281718F421912D9366
:10142000F9CF08958091ED04843029F481E0809310
:101430009E0660937C0681E090E008958F929F92D3
:10144000AF92BF92CF92DF92EF92FF920F931F93D2
:10145000CF93DF93FC01C081D1812091FC043091B6
:10146000FD04C217D3070CF04BC09E01220F331F9F
:10147000E091FA04F091FB04E20FF31F8080918069
:10148000C170DD27F1E0CF27209719F404E610E0C2
:1014900002C00CE91FEF7A015B016C01040F151FFC
:1014A000B801C4010E948909892B99F40E0D1F1DF2
:1014B000B801C4010E948909892B71F4B8016E0D2D
:1014C0007F1DC4010E948909892BE9F023E030E0E7
:1014D00005C021E030E002C022E030E0F50180816B
:1014E00091810196821793073CF0F50111821082D9
:1014F000F60180819181019691838083CE0105C0A0
:1015000081E090E002C08FEF9FEFDF91CF911F91BC
:101510000F91FF90EF90DF90CF90BF90AF909F9092
:101520008F900895009769F0FC0101900020E9F781
:101530003197AF01481B590BBC018CE095E00C942E
:10154000250880E090E008958F929F92AF92BF921D
:101550000F931F93CF93DF93CDB7DEB7A1970FB64D
:10156000F894DEBF0FBECDBF19A2423008F44AE0A6
:101570008E010F5D1F4F842E912CA12CB12CA50143
:1015800094010E94E314E62FB901CA010150110928
:10159000EA3014F4E05D01C0E95CD801EC93232B40
:1015A000242B252B61F7C8010E94920AA1960FB641
:1015B000F894DEBF0FBECDBFDF91CF911F910F9189
:1015C000BF90AF909F908F900895CF92DF92EF924F
:1015D000FF92CF93DF936C01990FEE08FF08F7FE9F
:1015E0001FC0E0910C05F0910D050190F081E02DF8
:1015F0006DE28CE095E00995EC0166277727CB0139
:101600006C197D098E099F094AE00E94A40A8C0F7B
:101610009D1FDF91CF91FF90EF90DF90CF900895C5
:101620004AE0C701B601DF91CF91FF90EF90DF90C4
:10163000CF900C94A40A1F920F920FB60F92112410
:101640002F933F934F935F936F937F938F939F93CA
:10165000AF93BF93EF93FF938091AA050E945C0D17
:101660002091AE053091AF052F5F3F4F3093AF050E
:101670002093AE059091AD05953618F096E09093C5
:10168000A9059091A9059430C9F128F4923069F028
:101690009330D1F05EC0953009F451C0963009F016
:1016A00058C091E090937A0651C0811152C02091A8
:1016B000AE053091AF052436310508F442C01092D2
:1016C0007A061092AD051CC0813009F042C0E0914D
:1016D000AD0591E09E0F9093AD05F0E02091AE0531
:1016E0003091AF05EE0FFF1FE755FA4F3087278384
:1016F0001092AF051092AE0594E029C0811117C079
:10170000E091AD0591E09E0F9093AD05F0E0209142
:10171000AE053091AF05EE0FFF1FE755FA4F30874A
:1017200027831092AF051092AE0593E010C0209170
:10173000AE053091AF052536310558F007C081114F
:1017400008C01092AF051092AE0503C095E09093CB
:10175000A9059091AC059923B9F081110AC0809137
:10176000AB05882321F08091AB0561E009C02D9A7B
:101770000BC08091AB05882331F08091AB0560E010
:101780000E94850D01C02D98FF91EF91BF91AF91FF
:101790009F918F917F916F915F914F913F912F9189
:1017A0000F900FBE0F901F9018951F920F920FB6BB
:1017B0000F9211242F933F934F935F936F937F93D7
:1017C0008F939F93AF93BF93EF93FF938091B90053
:1017D000887F803609F49CC068F5883209F45BC0C4
:1017E00090F4803109F454C038F4882309F4F3C02C
:1017F000883009F44DC0F3C0883109F44CC0803200
:1018000009F45DC0ECC0803409F468C048F480334A
:1018100009F455C0883309F0E2C08093C306D5C0EF
:10182000803509F44FC0883509F45DC0883409F06B
:10183000D6C0D3C0883909F4C4C0A8F4883709F4E5
:1018400067C038F4883609F463C0803709F460C093
:10185000C6C0883809F4B5C0803909F45FC0803843
:1018600009F0BDC05BC0803B09F483C038F4803A06
:1018700009F466C0883A09F47CC0B1C0803C09F420
:10188000A4C0883C09F4A1C0883B09F487C0A7C064
:101890008091E60610C09091E5068091E4069817C5
:1018A00070F5E091E50681E08E0F8093E506F0E0AB
:1018B000EC53F94F80818093BB0085EC83C080930B
:1018C000C3068BC0E091E50681E08E0F8093E506AC
:1018D0008091BB00F0E0EC53F94F80839091E506D6
:1018E0008091E4066BC0E091E50681E08E0F809365
:1018F000E5068091BB00F0E0EC53F94F80838091C6
:10190000EF0481116AC081E08093EE0484EA5EC036
:1019100083E08093ED041092C206CFCF8091C2067F
:10192000803208F04EC0E091C20681E08E0F8093B5
:10193000C2068091BB00F0E0EE55F94F8083BDCF29
:101940008091C206803230F4E091C206F0E0EE559C
:10195000F94F10820E94CD096091C20670E0E091BB
:10196000A006F091A10682EA96E009951092C206BF
:101970002CC084E08093ED0410929F0610929E0686
:10198000E0919C06F0919D06099580919E0681113B
:1019900005C081E080939E0610927C06E0919F0630
:1019A00081E08E0F80939F06F0E0E458F94F80812C
:1019B0008093BB0090919F0680919E06981708F433
:1019C0007CCF85E88093BC000AC085EC8093BC0086
:1019D0001092ED0404C01092C3060E94CD09FF913D
:1019E000EF91BF91AF919F918F917F916F915F9197
:1019F0004F913F912F910F900FBE0F901F90189510
:101A00008F929F92AF92BF92CF92DF92EF92FF920E
:101A10006B017C010E94F10D4B015C0184E0C81A4E
:101A2000D108E108F108C80CD91CEA1CFB1CC81439
:101A3000D904EA04FB0438F40E94F10D86169706D7
:101A4000A806B906C8F30E94F10D6C157D058E0538
:101A50009F05C8F3FF90EF90DF90CF90BF90AF90BD
:101A60009F908F900895833081F028F4813099F011
:101A70008230A1F008958730A9F08830B9F0843021
:101A8000D1F4809180008F7D03C0809180008F779A
:101A900080938000089584B58F7702C084B58F7DD0
:101AA00084BD08958091B0008F7703C08091B0000D
:101AB0008F7D8093B0000895CF93DF93282F30E07F
:101AC000F901E255FF4F8491F901E656FF4FD49199
:101AD000F901EA57FF4FC491CC2391F081110E9484
:101AE000330DEC2FF0E0EE0FFF1FE458FF4FA591F0
:101AF000B491EC91ED2381E090E021F480E002C00C
:101B000080E090E0DF91CF9108951F93CF93DF9312
:101B1000282F30E0F901E255FF4F8491F901E65694
:101B2000FF4FD491F901EA57FF4FC491CC23C9F07C
:101B3000162F81110E94330DEC2FF0E0EE0FFF1FE6
:101B4000EE58FF4FA591B4918FB7F894111105C0CD
:101B50009C91ED2FE095E92302C0EC91ED2BEC93E5
:101B60008FBFDF91CF911F910895CF93DF9390E0C6
:101B7000FC01E656FF4F2491FC01EA57FF4F849188
:101B8000882361F190E0880F991FFC01E859FF4F0D
:101B9000C591D491FC01EE58FF4FA591B49161110C
:101BA00009C09FB7F8948881209582238883EC919F
:101BB0002E230BC0623061F49FB7F8943881822FD6
:101BC000809583238883EC912E2B2C939FBF06C096
:101BD0008FB7F894E8812E2B28838FBFDF91CF91A8
:101BE00008953FB7F8948091EC069091ED06A0918E
:101BF000EE06B091EF0626B5A89B05C02F3F19F061
:101C00000196A11DB11D3FBFBA2FA92F982F88277C
:101C1000820F911DA11DB11DBC01CD0142E0660FD7
:101C2000771F881F991F4A95D1F708958F929F9229
:101C3000AF92BF92CF92DF92EF92FF926B017C0145
:101C40000E94F10D4B015C01C114D104E104F104C7
:101C5000F1F00E94F10DDC01CB0188199909AA0964
:101C6000BB09883E9340A105B10570F321E0C21A7B
:101C7000D108E108F10888EE880E83E0981EA11CC7
:101C8000B11CC114D104E104F10419F7DDCFFF90B8
:101C9000EF90DF90CF90BF90AF909F908F9008957E
:101CA0002FB7F8946091E8067091E9068091EA06F2
:101CB0009091EB062FBF08951F920F920FB60F92CF
:101CC00011242F933F938F939F93AF93BF93809152
:101CD000E8069091E906A091EA06B091EB063091F2
:101CE000E70623E0230F2D3720F40196A11DB11D37
:101CF00005C026E8230F0296A11DB11D2093E7061B
:101D00008093E8069093E906A093EA06B093EB0669
:101D10008091EC069091ED06A091EE06B091EF0651
:101D20000196A11DB11D8093EC069093ED06A09342
:101D3000EE06B093EF06BF91AF919F918F913F91C7
:101D40002F910F900FBE0F901F9018950F931F9318
:101D5000CF93DF930E94500E6093DB047093DC04FA
:101D60008093DD049093DE048091DF049091E00481
:101D7000039724F01092E0041092DF048091DF04B6
:101D80009091E00497FF06C082E090E09093E00419
:101D90008093DF0404E011E0C0E0D0E08091DF0434
:101DA0009091E004C817D90711F461E001C060E028
:101DB000F80180810E94850D21960E5F1F4FC33070
:101DC000D10561F76CE271E080E090E0DF91CF91A6
:101DD0001F910F910C94160ECF92DF92EF92FF920B
:101DE0000F931F93CF93DF931F92CDB7DEB7F82EDB
:101DF0008B011092700061E083E099830E94B50D21
:101E000060E083E00E94850D81E08093B00089E06E
:101E10008093B10082ED8093B30086E48093B40098
:101E2000CF2C9981D92EE12CF12CE016F106F8F493
:101E3000F601608171818091B000E0FE02C08F7D6B
:101E400001C080628093B0006115710549F080E0A7
:101E500090E0653071058105910510F00E94000D3C
:101E6000FFEFEF1AFF0A82E0C80ED11CDECF80918F
:101E7000B0008F7D8093B000E091DF04F091E0042A
:101E8000EE0FFF1FEC5FFE4F60E080810E94850D2A
:101E900068EC70E080E090E00E94160EE091DF04B4
:101EA000F091E004EE0FFF1FEC5FFE4F61E08081D8
:101EB0000F90DF91CF911F910F91FF90EF90DF90E6
:101EC000CF900C94850D789484B5826084BD84B5E0
:101ED000816084BD85B5826085BD85B5816085BD25
:101EE00080916E00816080936E00109281008091DD
:101EF0008100826080938100809181008160809365
:101F00008100809180008160809380008091B10089
:101F100084608093B1008091B00081608093B000B4
:101F200080917A00846080937A0080917A00826048
:101F300080937A0080917A00816080937A0080910A
:101F40007A00806880937A001092C100E0911C05AD
:101F5000F0911D0582E08083E0911C05F0911D0544
:101F60001082E0911805F09119051082E0911A0590
:101F7000F0911B0580E1808310922405E0912005FB
:101F8000F091210586E08083E0911E05F0911F0508
:101F9000808180618083E0911E05F0911F05808122
:101FA00088608083E0911E05F0911F058081806824
:101FB0008083E0911E05F0911F0580818F7D8083D5
:101FC0001092EC041092EB041092E9041092EA04CF
:101FD0001092ED0481E08093EF041092EE0461E032
:101FE00082E10E94850D61E083E10E94850D809170
:101FF000B9008E7F8093B9008091B9008D7F809366
:10200000B90088E48093B80085E48093BC0060E068
:1020100087E00E94B50D60E086E00E94B50D60E0AB
:1020200085E00E94B50D60E084E00E94B50D61E09E
:102030008DE00E94B50D61E08CE00E94B50D61E07D
:1020400089E00E94B50D61E08AE00E94B50D61E073
:102050008BE00E94B50D0BE411E0C0E0D0E0F80188
:1020600061918F01CE010E9487122196C039F3E061
:10207000DF07A9F7C3E0D0E061E08DE00E94850DA5
:102080006CE271E080E090E00E94160E60E08DE06E
:102090000E94850D6CE271E080E090E00E94160ED7
:1020A000219751F761E08DE00E94850D0E94A60EF8
:1020B00090E4F92E01E010E0C0E3D1E0F0927C0062
:1020C00080917A00806480937A0080917A0086FD06
:1020D000FCCF809178002091790090E0922B092E1E
:1020E000000CAA0BBB0B8093000190930101A093FD
:1020F0000201B093030184E00E945C0D892B09F476
:10210000CFC00E94500E4B015C018EE291E00E9414
:10211000920A4AE0C501B4010E94A40A8CE391E04E
:102120000E94920A0E94500E4AE00E94A40A8FE385
:1021300091E00E94920A84E00E945C0D892BE1F0FC
:102140000E94500EDC01CB0188199909AA09BB092C
:10215000883B9B40A105B10540F01093E404009337
:10216000E30461E08CE00E94850D69E170E080E0AD
:1021700090E00E94160EDFCF8091E3049091E4047A
:10218000892B09F48DC00E94500E4B015C01809197
:10219000E3049091E404892B09F456C00E94500E88
:1021A000DC01CB0188199909AA09BB09883C910572
:1021B000A105B10520F460E08CE00E94850D0E942D
:1021C000500EDC01CB0188199909AA09BB09893C89
:1021D0009105A105B10520F061E08CE00E94850D1C
:1021E0000E94500EDC01CB0188199909AA09BB098C
:1021F00081399140A105B10520F00E94500E4B019C
:102200005C0184E00E945C0D3C019093E2048093A9
:10221000E10487E00E945C0D6C019093E6048093DA
:10222000E50486E00E945C0D9093E8048093E70447
:10223000672829F4892B19F4CD2809F4A8CF109226
:10224000E4041092E304A3CF8091E5049091E604A6
:10225000892B41F01092E6041092E50480E090E0B2
:102260000E948C008091E7049091E804892B41F052
:102270001092E8041092E70481E090E00E948C0044
:1022800060E08CE00E94850DE091DF04F091E004B5
:10229000EE0FFF1FEC5FFE4F61E080810E94850D15
:1022A00085E00E945C0D892B59F487E00E945C0D4B
:1022B000892B09F450C00E94500E4B015C011DC0D7
:1022C0008091DF049091E00401969093E004809364
:1022D000DF040E94A60E85E00E945C0D892BD9F7D1
:1022E000E4CF86E00E945C0D892BE1F486E00E9439
:1022F0005C0D9093E8048093E7040E94500EDC018B
:10230000CB0188199909AA09BB0940910001509194
:102310000101609102017091030184179507A607DE
:10232000B707F8F269E170E080E090E00E94160ED5
:102330008091E7049091E8042091DF043091E0045B
:10234000019709F07AC0215031093093E0042093BD
:10235000DF040E94A60E86E00E945C0D892B09F422
:102360003FC00E94500E4B015C010E94500EDC01E8
:10237000CB0188199909AA09BB0940910001509124
:102380000101609102017091030184179507A6076E
:10239000B70768F487E00E945C0D892B41F487E061
:1023A0000E945C0D9093E6048093E504DECF69E122
:1023B00070E080E090E00E94160E8091E50490911C
:1023C000E6042091DF043091E004019709F046C053
:1023D0002F5F3F4F3093E0042093DF040E94A60E4E
:1023E00082E491E00E94920A86E00E945C0D0E94C5
:1023F000E50A8091E7049091E8040E94E50A809143
:10240000DF049091E004892BA9F00E94500E809087
:10241000DB049090DC04A090DD04B090DE04DC01CD
:10242000CB0188199909AA09BB0981329E44A105EB
:10243000B10528F50E94250941CE2C9FC0012D9F92
:10244000900D3C9F900D1124FC01E55BFE4F6081D7
:102450007181835B9E4F0E94EC0E7DCF2C9FC0014B
:102460002D9F900D3C9F900D1124FC01ED51FE4FCE
:10247000608171818B519E4F0E94EC0EB1CF109202
:10248000E0041092DF040E94A60ED4CFE0E0F5E055
:102490001382128288EE93E0A0E0B0E084839583FB
:1024A000A683B7832EE031E031832083ECE0F5E0B2
:1024B0001382128284839583A683B78380E291E09E
:1024C0009183808385EC90E09587848784EC90E00D
:1024D0009787868780EC90E0918B808B81EC90E0F1
:1024E000938B828B82EC90E0958B848B86EC90E0D2
:1024F000978B868B118E128E138E148EE9EAF5E07F
:1025000088E0818313820895F8940C945C15262F3B
:10251000F999FECF1FBA92BD81BD20BD0FB6F894C8
:10252000FA9AF99A0FBE0196089581E090E0F89426
:102530000C945C155058BB27AA270E94B2120C9429
:102540002C140E941E1438F00E94251420F039F437
:102550009F3F19F426F40C941B140EF4E095E7FB4E
:102560000C941514E92F0E943D1458F3BA17620712
:1025700073078407950720F079F4A6F50C945F148F
:102580000EF4E0950B2EBA2FA02D0B01B90190018E
:102590000C01CA01A0011124FF27591B99F0593FD2
:1025A00050F4503E68F11A16F040A22F232F342F1A
:1025B0004427585FF3CF469537952795A795F04068
:1025C0005395C9F77EF41F16BA0B620B730B840B7D
:1025D000BAF09150A1F0FF0FBB1F661F771F881F35
:1025E000C2F70EC0BA0F621F731F841F48F487958D
:1025F00077956795B795F7959E3F08F0B0CF93957F
:10260000880F08F09927EE0F9795879508950E94F7
:10261000F11308F481E008950E9420130C942C1407
:102620000E94251458F00E941E1440F029F45F3FC8
:1026300029F00C94151451110C9460140C941B1473
:102640000E943D1468F39923B1F3552391F3951B30
:10265000550BBB27AA2762177307840738F09F5FC3
:102660005F4F220F331F441FAA1FA9F335D00E2E30
:102670003AF0E0E832D091505040E695001CCAF79D
:102680002BD0FE2F29D0660F771F881FBB1F261760
:1026900037074807AB07B0E809F0BB0B802DBF0137
:1026A000FF2793585F4F3AF09E3F510578F00C9406
:1026B00015140C9460145F3FE4F3983ED4F38695B0
:1026C00077956795B795F7959F5FC9F7880F911D27
:1026D0009695879597F90895E1E0660F771F881F13
:1026E000BB1F621773078407BA0720F0621B730BC6
:1026F000840BBA0BEE1F88F7E09508950E948513AE
:102700006894B1110C94601408950E94451488F0E7
:102710009F5798F0B92F9927B751B0F0E1F0660FA5
:10272000771F881F991F1AF0BA95C9F714C0B130E6
:1027300091F00E945F14B1E008950C945F14672F2C
:10274000782F8827B85F39F0B93FCCF38695779515
:102750006795B395D9F73EF49095809570956195FE
:102760007F4F8F4F9F4F0895E89409C097FB3EF429
:1027700090958095709561957F4F8F4F9F4F9923CE
:10278000A9F0F92F96E9BB279395F695879577954C
:102790006795B795F111F8CFFAF4BB0F11F460FF0C
:1027A0001BC06F5F7F4F8F4F9F4F16C0882311F064
:1027B00096E911C0772321F09EE8872F762F05C078
:1027C000662371F096E8862F70E060E02AF09A9513
:1027D000660F771F881FDAF7880F9695879597F908
:1027E0000895990F0008550FAA0BE0E8FEEF1616A2
:1027F0001706E807F907C0F012161306E407F507F5
:1028000098F0621B730B840B950B39F40A2661F068
:10281000232B242B252B21F408950A2609F4A1400B
:10282000A6958FEF811D811D089597F99F6780E818
:1028300070E060E008959FEF80EC089500240A9412
:102840001616170618060906089500240A9412168B
:102850001306140605060895092E0394000C11F4BE
:10286000882352F0BB0F40F4BF2B11F460FF04C06B
:102870006F5F7F4F8F4F9F4F089557FD9058440FC4
:10288000551F59F05F3F71F04795880F97FB991FCF
:1028900061F09F3F79F0879508951216130614068C
:1028A000551FF2CF4695F1DF08C016161706180619
:1028B000991FF1CF86957105610508940895E894F4
:1028C000BB2766277727CB0197F908950E947914D3
:1028D0000C942C140E941E1438F00E94251420F031
:1028E000952311F00C9415140C941B1411240C94C2
:1028F00060140E943D1470F3959FC1F3950F50E052
:10290000551F629FF001729FBB27F00DB11D639FA1
:10291000AA27F00DB11DAA1F649F6627B00DA11D47
:10292000661F829F2227B00DA11D621F739FB00DED
:10293000A11D621F839FA00D611D221F749F33275D
:10294000A00D611D231F849F600D211D822F762FF6
:102950006A2F11249F5750409AF0F1F088234AF0D3
:10296000EE0FFF1FBB1F661F771F881F915050403F
:10297000A9F79E3F510580F00C9415140C94601437
:102980005F3FE4F3983ED4F3869577956795B795C6
:10299000F795E7959F5FC1F7FE2B880F911D9695E0
:1029A000879597F90895DB018F939F930E940515F2
:1029B000BF91AF91A29F800D911DA39F900DB29FDB
:1029C000900D11240895A1E21A2EAA1BBB1BFD0134
:1029D0000DC0AA1FBB1FEE1FFF1FA217B307E407FE
:1029E000F50720F0A21BB30BE40BF50B661F771F56
:1029F000881F991F1A9469F7609570958095909536
:102A00009B01AC01BD01CF0108950E944D15A59F0A
:102A1000900DB49F900DA49F800D911D11240895D9
:102A20000F93083090F0982F872F762F652F542F13
:102A3000432F322F22270850F4CF220F331F441F79
:102A4000551F661F771F881F991F0A95B2F70F91B0
:102A5000089597FB10F8169400080F93083098F02B
:102A60000850232F342F452F562F672F782F892F6B
:102A7000902DF4CF05949795879577956795579501
:102A80004795379527950A95AAF70F910895EE0F68
:102A9000FF1F0590F491E02D0994A29FB001B39F10
:102AA000C001A39F700D811D1124911DB29F700D57
:0C2AB000811D1124911D0895F894FFCFA2
:102ABC009600000009000A000B0000000000120A3A
:102ACC00FD095108D709F509E609D80900000000ED
:102ADC00BC08250854080309850863087708204CAE
:102AEC006561726E2054696D65723A002020000D8C
:0A2AFC000A00446F776E3A200000D4
:00000001FF
